{
  "_format": "hh3-artifact-1",
  "contractName": "OSBB_Token",
  "sourceName": "contracts/OSBB_DAO.sol",
  "abi": [
    {
      "inputs": [],
      "stateMutability": "nonpayable",
      "type": "constructor"
    },
    {
      "inputs": [],
      "name": "AccessControlBadConfirmation",
      "type": "error"
    },
    {
      "inputs": [
        {
          "internalType": "address",
          "name": "account",
          "type": "address"
        },
        {
          "internalType": "bytes32",
          "name": "neededRole",
          "type": "bytes32"
        }
      ],
      "name": "AccessControlUnauthorizedAccount",
      "type": "error"
    },
    {
      "inputs": [],
      "name": "CheckpointUnorderedInsertion",
      "type": "error"
    },
    {
      "inputs": [],
      "name": "ECDSAInvalidSignature",
      "type": "error"
    },
    {
      "inputs": [
        {
          "internalType": "uint256",
          "name": "length",
          "type": "uint256"
        }
      ],
      "name": "ECDSAInvalidSignatureLength",
      "type": "error"
    },
    {
      "inputs": [
        {
          "internalType": "bytes32",
          "name": "s",
          "type": "bytes32"
        }
      ],
      "name": "ECDSAInvalidSignatureS",
      "type": "error"
    },
    {
      "inputs": [
        {
          "internalType": "uint256",
          "name": "increasedSupply",
          "type": "uint256"
        },
        {
          "internalType": "uint256",
          "name": "cap",
          "type": "uint256"
        }
      ],
      "name": "ERC20ExceededSafeSupply",
      "type": "error"
    },
    {
      "inputs": [
        {
          "internalType": "address",
          "name": "spender",
          "type": "address"
        },
        {
          "internalType": "uint256",
          "name": "allowance",
          "type": "uint256"
        },
        {
          "internalType": "uint256",
          "name": "needed",
          "type": "uint256"
        }
      ],
      "name": "ERC20InsufficientAllowance",
      "type": "error"
    },
    {
      "inputs": [
        {
          "internalType": "address",
          "name": "sender",
          "type": "address"
        },
        {
          "internalType": "uint256",
          "name": "balance",
          "type": "uint256"
        },
        {
          "internalType": "uint256",
          "name": "needed",
          "type": "uint256"
        }
      ],
      "name": "ERC20InsufficientBalance",
      "type": "error"
    },
    {
      "inputs": [
        {
          "internalType": "address",
          "name": "approver",
          "type": "address"
        }
      ],
      "name": "ERC20InvalidApprover",
      "type": "error"
    },
    {
      "inputs": [
        {
          "internalType": "address",
          "name": "receiver",
          "type": "address"
        }
      ],
      "name": "ERC20InvalidReceiver",
      "type": "error"
    },
    {
      "inputs": [
        {
          "internalType": "address",
          "name": "sender",
          "type": "address"
        }
      ],
      "name": "ERC20InvalidSender",
      "type": "error"
    },
    {
      "inputs": [
        {
          "internalType": "address",
          "name": "spender",
          "type": "address"
        }
      ],
      "name": "ERC20InvalidSpender",
      "type": "error"
    },
    {
      "inputs": [
        {
          "internalType": "uint256",
          "name": "deadline",
          "type": "uint256"
        }
      ],
      "name": "ERC2612ExpiredSignature",
      "type": "error"
    },
    {
      "inputs": [
        {
          "internalType": "address",
          "name": "signer",
          "type": "address"
        },
        {
          "internalType": "address",
          "name": "owner",
          "type": "address"
        }
      ],
      "name": "ERC2612InvalidSigner",
      "type": "error"
    },
    {
      "inputs": [
        {
          "internalType": "uint256",
          "name": "timepoint",
          "type": "uint256"
        },
        {
          "internalType": "uint48",
          "name": "clock",
          "type": "uint48"
        }
      ],
      "name": "ERC5805FutureLookup",
      "type": "error"
    },
    {
      "inputs": [],
      "name": "ERC6372InconsistentClock",
      "type": "error"
    },
    {
      "inputs": [
        {
          "internalType": "address",
          "name": "account",
          "type": "address"
        },
        {
          "internalType": "uint256",
          "name": "currentNonce",
          "type": "uint256"
        }
      ],
      "name": "InvalidAccountNonce",
      "type": "error"
    },
    {
      "inputs": [],
      "name": "InvalidShortString",
      "type": "error"
    },
    {
      "inputs": [
        {
          "internalType": "uint8",
          "name": "bits",
          "type": "uint8"
        },
        {
          "internalType": "uint256",
          "name": "value",
          "type": "uint256"
        }
      ],
      "name": "SafeCastOverflowedUintDowncast",
      "type": "error"
    },
    {
      "inputs": [
        {
          "internalType": "string",
          "name": "str",
          "type": "string"
        }
      ],
      "name": "StringTooLong",
      "type": "error"
    },
    {
      "inputs": [
        {
          "internalType": "uint256",
          "name": "expiry",
          "type": "uint256"
        }
      ],
      "name": "VotesExpiredSignature",
      "type": "error"
    },
    {
      "anonymous": false,
      "inputs": [
        {
          "indexed": true,
          "internalType": "address",
          "name": "owner",
          "type": "address"
        },
        {
          "indexed": true,
          "internalType": "address",
          "name": "spender",
          "type": "address"
        },
        {
          "indexed": false,
          "internalType": "uint256",
          "name": "value",
          "type": "uint256"
        }
      ],
      "name": "Approval",
      "type": "event"
    },
    {
      "anonymous": false,
      "inputs": [
        {
          "indexed": true,
          "internalType": "address",
          "name": "delegator",
          "type": "address"
        },
        {
          "indexed": true,
          "internalType": "address",
          "name": "fromDelegate",
          "type": "address"
        },
        {
          "indexed": true,
          "internalType": "address",
          "name": "toDelegate",
          "type": "address"
        }
      ],
      "name": "DelegateChanged",
      "type": "event"
    },
    {
      "anonymous": false,
      "inputs": [
        {
          "indexed": true,
          "internalType": "address",
          "name": "delegate",
          "type": "address"
        },
        {
          "indexed": false,
          "internalType": "uint256",
          "name": "previousVotes",
          "type": "uint256"
        },
        {
          "indexed": false,
          "internalType": "uint256",
          "name": "newVotes",
          "type": "uint256"
        }
      ],
      "name": "DelegateVotesChanged",
      "type": "event"
    },
    {
      "anonymous": false,
      "inputs": [],
      "name": "EIP712DomainChanged",
      "type": "event"
    },
    {
      "anonymous": false,
      "inputs": [
        {
          "indexed": true,
          "internalType": "bytes32",
          "name": "role",
          "type": "bytes32"
        },
        {
          "indexed": true,
          "internalType": "bytes32",
          "name": "previousAdminRole",
          "type": "bytes32"
        },
        {
          "indexed": true,
          "internalType": "bytes32",
          "name": "newAdminRole",
          "type": "bytes32"
        }
      ],
      "name": "RoleAdminChanged",
      "type": "event"
    },
    {
      "anonymous": false,
      "inputs": [
        {
          "indexed": true,
          "internalType": "bytes32",
          "name": "role",
          "type": "bytes32"
        },
        {
          "indexed": true,
          "internalType": "address",
          "name": "account",
          "type": "address"
        },
        {
          "indexed": true,
          "internalType": "address",
          "name": "sender",
          "type": "address"
        }
      ],
      "name": "RoleGranted",
      "type": "event"
    },
    {
      "anonymous": false,
      "inputs": [
        {
          "indexed": true,
          "internalType": "bytes32",
          "name": "role",
          "type": "bytes32"
        },
        {
          "indexed": true,
          "internalType": "address",
          "name": "account",
          "type": "address"
        },
        {
          "indexed": true,
          "internalType": "address",
          "name": "sender",
          "type": "address"
        }
      ],
      "name": "RoleRevoked",
      "type": "event"
    },
    {
      "anonymous": false,
      "inputs": [
        {
          "indexed": true,
          "internalType": "address",
          "name": "from",
          "type": "address"
        },
        {
          "indexed": true,
          "internalType": "address",
          "name": "to",
          "type": "address"
        },
        {
          "indexed": false,
          "internalType": "uint256",
          "name": "value",
          "type": "uint256"
        }
      ],
      "name": "Transfer",
      "type": "event"
    },
    {
      "inputs": [],
      "name": "CLOCK_MODE",
      "outputs": [
        {
          "internalType": "string",
          "name": "",
          "type": "string"
        }
      ],
      "stateMutability": "view",
      "type": "function"
    },
    {
      "inputs": [],
      "name": "DEFAULT_ADMIN_ROLE",
      "outputs": [
        {
          "internalType": "bytes32",
          "name": "",
          "type": "bytes32"
        }
      ],
      "stateMutability": "view",
      "type": "function"
    },
    {
      "inputs": [],
      "name": "DOMAIN_SEPARATOR",
      "outputs": [
        {
          "internalType": "bytes32",
          "name": "",
          "type": "bytes32"
        }
      ],
      "stateMutability": "view",
      "type": "function"
    },
    {
      "inputs": [],
      "name": "MINTER_ROLE",
      "outputs": [
        {
          "internalType": "bytes32",
          "name": "",
          "type": "bytes32"
        }
      ],
      "stateMutability": "view",
      "type": "function"
    },
    {
      "inputs": [
        {
          "internalType": "address",
          "name": "owner",
          "type": "address"
        },
        {
          "internalType": "address",
          "name": "spender",
          "type": "address"
        }
      ],
      "name": "allowance",
      "outputs": [
        {
          "internalType": "uint256",
          "name": "",
          "type": "uint256"
        }
      ],
      "stateMutability": "view",
      "type": "function"
    },
    {
      "inputs": [
        {
          "internalType": "address",
          "name": "spender",
          "type": "address"
        },
        {
          "internalType": "uint256",
          "name": "value",
          "type": "uint256"
        }
      ],
      "name": "approve",
      "outputs": [
        {
          "internalType": "bool",
          "name": "",
          "type": "bool"
        }
      ],
      "stateMutability": "nonpayable",
      "type": "function"
    },
    {
      "inputs": [
        {
          "internalType": "address",
          "name": "account",
          "type": "address"
        }
      ],
      "name": "balanceOf",
      "outputs": [
        {
          "internalType": "uint256",
          "name": "",
          "type": "uint256"
        }
      ],
      "stateMutability": "view",
      "type": "function"
    },
    {
      "inputs": [
        {
          "internalType": "address",
          "name": "from",
          "type": "address"
        },
        {
          "internalType": "uint256",
          "name": "amount",
          "type": "uint256"
        }
      ],
      "name": "burn",
      "outputs": [],
      "stateMutability": "nonpayable",
      "type": "function"
    },
    {
      "inputs": [
        {
          "internalType": "address",
          "name": "account",
          "type": "address"
        },
        {
          "internalType": "uint32",
          "name": "pos",
          "type": "uint32"
        }
      ],
      "name": "checkpoints",
      "outputs": [
        {
          "components": [
            {
              "internalType": "uint48",
              "name": "_key",
              "type": "uint48"
            },
            {
              "internalType": "uint208",
              "name": "_value",
              "type": "uint208"
            }
          ],
          "internalType": "struct Checkpoints.Checkpoint208",
          "name": "",
          "type": "tuple"
        }
      ],
      "stateMutability": "view",
      "type": "function"
    },
    {
      "inputs": [],
      "name": "clock",
      "outputs": [
        {
          "internalType": "uint48",
          "name": "",
          "type": "uint48"
        }
      ],
      "stateMutability": "view",
      "type": "function"
    },
    {
      "inputs": [],
      "name": "decimals",
      "outputs": [
        {
          "internalType": "uint8",
          "name": "",
          "type": "uint8"
        }
      ],
      "stateMutability": "view",
      "type": "function"
    },
    {
      "inputs": [
        {
          "internalType": "address",
          "name": "delegatee",
          "type": "address"
        }
      ],
      "name": "delegate",
      "outputs": [],
      "stateMutability": "nonpayable",
      "type": "function"
    },
    {
      "inputs": [
        {
          "internalType": "address",
          "name": "delegatee",
          "type": "address"
        },
        {
          "internalType": "uint256",
          "name": "nonce",
          "type": "uint256"
        },
        {
          "internalType": "uint256",
          "name": "expiry",
          "type": "uint256"
        },
        {
          "internalType": "uint8",
          "name": "v",
          "type": "uint8"
        },
        {
          "internalType": "bytes32",
          "name": "r",
          "type": "bytes32"
        },
        {
          "internalType": "bytes32",
          "name": "s",
          "type": "bytes32"
        }
      ],
      "name": "delegateBySig",
      "outputs": [],
      "stateMutability": "nonpayable",
      "type": "function"
    },
    {
      "inputs": [
        {
          "internalType": "address",
          "name": "account",
          "type": "address"
        }
      ],
      "name": "delegates",
      "outputs": [
        {
          "internalType": "address",
          "name": "",
          "type": "address"
        }
      ],
      "stateMutability": "view",
      "type": "function"
    },
    {
      "inputs": [],
      "name": "eip712Domain",
      "outputs": [
        {
          "internalType": "bytes1",
          "name": "fields",
          "type": "bytes1"
        },
        {
          "internalType": "string",
          "name": "name",
          "type": "string"
        },
        {
          "internalType": "string",
          "name": "version",
          "type": "string"
        },
        {
          "internalType": "uint256",
          "name": "chainId",
          "type": "uint256"
        },
        {
          "internalType": "address",
          "name": "verifyingContract",
          "type": "address"
        },
        {
          "internalType": "bytes32",
          "name": "salt",
          "type": "bytes32"
        },
        {
          "internalType": "uint256[]",
          "name": "extensions",
          "type": "uint256[]"
        }
      ],
      "stateMutability": "view",
      "type": "function"
    },
    {
      "inputs": [
        {
          "internalType": "uint256",
          "name": "timepoint",
          "type": "uint256"
        }
      ],
      "name": "getPastTotalSupply",
      "outputs": [
        {
          "internalType": "uint256",
          "name": "",
          "type": "uint256"
        }
      ],
      "stateMutability": "view",
      "type": "function"
    },
    {
      "inputs": [
        {
          "internalType": "address",
          "name": "account",
          "type": "address"
        },
        {
          "internalType": "uint256",
          "name": "timepoint",
          "type": "uint256"
        }
      ],
      "name": "getPastVotes",
      "outputs": [
        {
          "internalType": "uint256",
          "name": "",
          "type": "uint256"
        }
      ],
      "stateMutability": "view",
      "type": "function"
    },
    {
      "inputs": [
        {
          "internalType": "bytes32",
          "name": "role",
          "type": "bytes32"
        }
      ],
      "name": "getRoleAdmin",
      "outputs": [
        {
          "internalType": "bytes32",
          "name": "",
          "type": "bytes32"
        }
      ],
      "stateMutability": "view",
      "type": "function"
    },
    {
      "inputs": [
        {
          "internalType": "address",
          "name": "account",
          "type": "address"
        }
      ],
      "name": "getVotes",
      "outputs": [
        {
          "internalType": "uint256",
          "name": "",
          "type": "uint256"
        }
      ],
      "stateMutability": "view",
      "type": "function"
    },
    {
      "inputs": [
        {
          "internalType": "bytes32",
          "name": "role",
          "type": "bytes32"
        },
        {
          "internalType": "address",
          "name": "account",
          "type": "address"
        }
      ],
      "name": "grantRole",
      "outputs": [],
      "stateMutability": "nonpayable",
      "type": "function"
    },
    {
      "inputs": [
        {
          "internalType": "bytes32",
          "name": "role",
          "type": "bytes32"
        },
        {
          "internalType": "address",
          "name": "account",
          "type": "address"
        }
      ],
      "name": "hasRole",
      "outputs": [
        {
          "internalType": "bool",
          "name": "",
          "type": "bool"
        }
      ],
      "stateMutability": "view",
      "type": "function"
    },
    {
      "inputs": [
        {
          "internalType": "address",
          "name": "to",
          "type": "address"
        },
        {
          "internalType": "uint256",
          "name": "amount",
          "type": "uint256"
        }
      ],
      "name": "mint",
      "outputs": [],
      "stateMutability": "nonpayable",
      "type": "function"
    },
    {
      "inputs": [],
      "name": "name",
      "outputs": [
        {
          "internalType": "string",
          "name": "",
          "type": "string"
        }
      ],
      "stateMutability": "view",
      "type": "function"
    },
    {
      "inputs": [
        {
          "internalType": "address",
          "name": "owner",
          "type": "address"
        }
      ],
      "name": "nonces",
      "outputs": [
        {
          "internalType": "uint256",
          "name": "",
          "type": "uint256"
        }
      ],
      "stateMutability": "view",
      "type": "function"
    },
    {
      "inputs": [
        {
          "internalType": "address",
          "name": "account",
          "type": "address"
        }
      ],
      "name": "numCheckpoints",
      "outputs": [
        {
          "internalType": "uint32",
          "name": "",
          "type": "uint32"
        }
      ],
      "stateMutability": "view",
      "type": "function"
    },
    {
      "inputs": [
        {
          "internalType": "address",
          "name": "owner",
          "type": "address"
        },
        {
          "internalType": "address",
          "name": "spender",
          "type": "address"
        },
        {
          "internalType": "uint256",
          "name": "value",
          "type": "uint256"
        },
        {
          "internalType": "uint256",
          "name": "deadline",
          "type": "uint256"
        },
        {
          "internalType": "uint8",
          "name": "v",
          "type": "uint8"
        },
        {
          "internalType": "bytes32",
          "name": "r",
          "type": "bytes32"
        },
        {
          "internalType": "bytes32",
          "name": "s",
          "type": "bytes32"
        }
      ],
      "name": "permit",
      "outputs": [],
      "stateMutability": "nonpayable",
      "type": "function"
    },
    {
      "inputs": [
        {
          "internalType": "bytes32",
          "name": "role",
          "type": "bytes32"
        },
        {
          "internalType": "address",
          "name": "callerConfirmation",
          "type": "address"
        }
      ],
      "name": "renounceRole",
      "outputs": [],
      "stateMutability": "nonpayable",
      "type": "function"
    },
    {
      "inputs": [
        {
          "internalType": "bytes32",
          "name": "role",
          "type": "bytes32"
        },
        {
          "internalType": "address",
          "name": "account",
          "type": "address"
        }
      ],
      "name": "revokeRole",
      "outputs": [],
      "stateMutability": "nonpayable",
      "type": "function"
    },
    {
      "inputs": [
        {
          "internalType": "bytes4",
          "name": "interfaceId",
          "type": "bytes4"
        }
      ],
      "name": "supportsInterface",
      "outputs": [
        {
          "internalType": "bool",
          "name": "",
          "type": "bool"
        }
      ],
      "stateMutability": "view",
      "type": "function"
    },
    {
      "inputs": [],
      "name": "symbol",
      "outputs": [
        {
          "internalType": "string",
          "name": "",
          "type": "string"
        }
      ],
      "stateMutability": "view",
      "type": "function"
    },
    {
      "inputs": [],
      "name": "totalSupply",
      "outputs": [
        {
          "internalType": "uint256",
          "name": "",
          "type": "uint256"
        }
      ],
      "stateMutability": "view",
      "type": "function"
    },
    {
      "inputs": [
        {
          "internalType": "address",
          "name": "to",
          "type": "address"
        },
        {
          "internalType": "uint256",
          "name": "value",
          "type": "uint256"
        }
      ],
      "name": "transfer",
      "outputs": [
        {
          "internalType": "bool",
          "name": "",
          "type": "bool"
        }
      ],
      "stateMutability": "nonpayable",
      "type": "function"
    },
    {
      "inputs": [
        {
          "internalType": "address",
          "name": "from",
          "type": "address"
        },
        {
          "internalType": "address",
          "name": "to",
          "type": "address"
        },
        {
          "internalType": "uint256",
          "name": "value",
          "type": "uint256"
        }
      ],
      "name": "transferFrom",
      "outputs": [
        {
          "internalType": "bool",
          "name": "",
          "type": "bool"
        }
      ],
      "stateMutability": "nonpayable",
      "type": "function"
    }
  ],
  "bytecode": "0x6101606040523461045057604051610018604082610454565b60118152602081017027a9a121102b37ba34b733902a37b5b2b760791b815260405190610046604083610454565b601182527027a9a121102b37ba34b733902a37b5b2b760791b602083015260405192610073604085610454565b600484526327a9a12160e11b602085015260405193610093604086610454565b60018552603160f81b60208601908152845190946001600160401b0382116103535760035490600182811c92168015610446575b60208310146103355781601f8493116103d8575b50602090601f8311600114610372575f92610367575b50508160011b915f199060031b1c1916176003555b8051906001600160401b0382116103535760045490600182811c92168015610349575b60208310146103355781601f8493116102c7575b50602090601f8311600114610261575f92610256575b50508160011b915f199060031b1c1916176004555b61017181610580565b6101205261017e84610707565b61014052519020918260e05251902080610100524660a0526040519060208201927f8b73c3c69bb8fe3d512ecc4cf759cc79239f7b179b0ffacaa9a75d522b39400f8452604083015260608201524660808201523060a082015260a081526101e760c082610454565b5190206080523060c0526101fa33610477565b50610204336104ed565b506040516120089081610840823960805181611460015260a0518161151d015260c0518161142a015260e051816114af015261010051816114d5015261012051816109210152610140518161094a0152f35b015190505f80610153565b60045f9081528281209350601f198516905b8181106102af5750908460019594939210610297575b505050811b01600455610168565b01515f1960f88460031b161c191690555f8080610289565b92936020600181928786015181550195019301610273565b60045f529091507f8a35acfbc15ff81a39ae7d344fd709f28e8600b4aa8c65c6b64bfe7fe36bd19b601f840160051c8101916020851061032b575b90601f859493920160051c01905b81811061031d575061013d565b5f8155849350600101610310565b9091508190610302565b634e487b7160e01b5f52602260045260245ffd5b91607f1691610129565b634e487b7160e01b5f52604160045260245ffd5b015190505f806100f1565b60035f9081528281209350601f198516905b8181106103c057509084600195949392106103a8575b505050811b01600355610106565b01515f1960f88460031b161c191690555f808061039a565b92936020600181928786015181550195019301610384565b60035f529091507fc2575a0e9e593c00f959f8c92f12db2869c3395a3b0502d05e2516446f71f85b601f840160051c8101916020851061043c575b90601f859493920160051c01905b81811061042e57506100db565b5f8155849350600101610421565b9091508190610413565b91607f16916100c7565b5f80fd5b601f909101601f19168101906001600160401b0382119082101761035357604052565b6001600160a01b0381165f9081525f5160206128685f395f51905f52602052604090205460ff166104e8576001600160a01b03165f8181525f5160206128685f395f51905f5260205260408120805460ff191660011790553391905f5160206128485f395f51905f528180a4600190565b505f90565b6001600160a01b0381165f9081525f5160206128885f395f51905f52602052604090205460ff166104e8576001600160a01b03165f8181525f5160206128885f395f51905f5260205260408120805460ff191660011790553391907f9f2df0fed2c77648de5860a4cc508cd0818c85b8b8a1ab4ceeef8d981c8956a6905f5160206128485f395f51905f529080a4600190565b908151602081105f146105fa575090601f8151116105ba5760208151910151602082106105ab571790565b5f198260200360031b1b161790565b604460209160405192839163305a27a960e01b83528160048401528051918291826024860152018484015e5f828201840152601f01601f19168101030190fd5b6001600160401b03811161035357600554600181811c911680156106fd575b602082101461033557601f81116106ca575b50602092601f821160011461066957928192935f9261065e575b50508160011b915f199060031b1c19161760055560ff90565b015190505f80610645565b601f1982169360055f52805f20915f5b8681106106b2575083600195961061069a575b505050811b0160055560ff90565b01515f1960f88460031b161c191690555f808061068c565b91926020600181928685015181550194019201610679565b60055f52601f60205f20910160051c810190601f830160051c015b8181106106f2575061062b565b5f81556001016106e5565b90607f1690610619565b908151602081105f14610732575090601f8151116105ba5760208151910151602082106105ab571790565b6001600160401b03811161035357600654600181811c91168015610835575b602082101461033557601f8111610802575b50602092601f82116001146107a157928192935f92610796575b50508160011b915f199060031b1c19161760065560ff90565b015190505f8061077d565b601f1982169360065f52805f20915f5b8681106107ea57508360019596106107d2575b505050811b0160065560ff90565b01515f1960f88460031b161c191690555f80806107c4565b919260206001819286850151815501940192016107b1565b60065f52601f60205f20910160051c810190601f830160051c015b81811061082a5750610763565b5f815560010161081d565b90607f169061075156fe60806040526004361015610011575f80fd5b5f3560e01c806301ffc9a71461022457806306fdde031461021f578063095ea7b31461021a57806318160ddd1461021557806323b872dd14610210578063248a9ca31461020b5780632f2ff15d14610206578063313ce567146102015780633644e515146101fc57806336568abe146101f75780633a46b1a8146101f257806340c10f19146101ed5780634bf5d7e9146101e8578063587cde1e146101e35780635c19a95c146101de5780636fcfff45146101d957806370a08231146101d45780637ecebe00146101cf57806384b0196e146101ca5780638e539e8c146101c557806391d14854146101c057806391ddadf4146101bb57806395d89b41146101b65780639ab24eb0146101b15780639dc29fac146101ac578063a217fddf146101a7578063a9059cbb146101a2578063c3cda5201461019d578063d505accf14610198578063d539139314610193578063d547741f1461018e578063dd62ed3e146101895763f1127ed814610184575f80fd5b611079565b611022565b610fe4565b610faa565b610e86565b610d77565b610d34565b610d1a565b610c2b565b610be4565b610b3f565b610b14565b610ac5565b610a06565b610909565b6108d1565b610899565b610837565b610815565b6107d5565b610745565b61066f565b61058a565b610546565b61052c565b610511565b6104cc565b610499565b61040a565b6103ed565b6103bc565b6102b6565b3461027a57602036600319011261027a5760043563ffffffff60e01b811680910361027a57602090637965db0b60e01b8114908115610269575b506040519015158152f35b6301ffc9a760e01b1490505f61025e565b5f80fd5b805180835260209291819084018484015e5f828201840152601f01601f1916010190565b9060206102b392818152019061027e565b90565b3461027a575f36600319011261027a576040515f6003546102d68161112b565b808452906001811690811561036c575060011461030e575b61030a836102fe81850382611219565b604051918291826102a2565b0390f35b60035f9081527fc2575a0e9e593c00f959f8c92f12db2869c3395a3b0502d05e2516446f71f85b939250905b808210610352575090915081016020016102fe6102ee565b91926001816020925483858801015201910190929161033a565b60ff191660208086019190915291151560051b840190910191506102fe90506102ee565b600435906001600160a01b038216820361027a57565b602435906001600160a01b038216820361027a57565b3461027a57604036600319011261027a576103e26103d8610390565b6024359033611721565b602060405160018152f35b3461027a575f36600319011261027a576020600254604051908152f35b3461027a57606036600319011261027a57610423610390565b61042b6103a6565b6001600160a01b0382165f908152600160209081526040808320338452909152902054604435929083905f198110610465575b5050611264565b8181106104805790610479910333836117bc565b825f61045e565b637dc7a0d960e11b5f523360045260245260445260645ffd5b3461027a57602036600319011261027a5760206104c46004355f52600b602052600160405f20015490565b604051908152f35b3461027a57604036600319011261027a5761050f6004356104eb6103a6565b9061050a610505825f52600b602052600160405f20015490565b61135d565b611397565b005b3461027a575f36600319011261027a57602060405160128152f35b3461027a575f36600319011261027a5760206104c4611427565b3461027a57604036600319011261027a576004356105626103a6565b336001600160a01b0382160361057b5761050f91611543565b63334bd91960e11b5f5260045ffd5b3461027a57604036600319011261027a576105a3610390565b6001600160a01b03165f9081526009602052604090206105c46024356115cb565b8154905f829160058411610617575b6105de9350846119ad565b90816105fc57505060205f5b6040516001600160d01b039091168152f35b610607602092611618565b905f52815f20015460301c6105ea565b91926106228161184f565b810390811161066a576105de93855f5265ffffffffffff8260205f2001541665ffffffffffff8516105f146106585750916105d3565b92915061066490611626565b906105d3565b611604565b3461027a57604036600319011261027a57610688610390565b6024356106936112ee565b6001600160a01b0382168015610732576106b76106b283600254611634565b600255565b6001600160a01b0383165f90815260208181526040808320805486019055518481527fddf252ad1be2c89b69c2b068fc378daa952ba7f163c4a11628f55a4df523b3ef9190a3600254916001600160d01b0380841161071b5761050f83835f611dec565b630e58ae9360e11b5f52600484905260245260445ffd5b63ec442f0560e01b5f525f60045260245ffd5b3461027a575f36600319011261027a5761075e43611802565b65ffffffffffff8061076f43611802565b169116036107c65761030a604051610788604082611219565b601d81527f6d6f64653d626c6f636b6e756d6265722666726f6d3d64656661756c74000000602082015260405191829160208352602083019061027e565b6301bfc1c560e61b5f5260045ffd5b3461027a57602036600319011261027a576001600160a01b036107f6610390565b165f526008602052602060018060a01b0360405f205416604051908152f35b3461027a57602036600319011261027a5761050f610831610390565b33611641565b3461027a57602036600319011261027a576001600160a01b03610858610390565b165f52600960205260405f205463ffffffff81116108825760405163ffffffff9091168152602090f35b6306dfcc6560e41b5f52602060045260245260445ffd5b3461027a57602036600319011261027a5760206104c46108b7610390565b6001600160a01b03165f9081526020819052604090205490565b3461027a57602036600319011261027a576001600160a01b036108f2610390565b165f526007602052602060405f2054604051908152f35b3461027a575f36600319011261027a576109ad6109457f0000000000000000000000000000000000000000000000000000000000000000611b33565b61096e7f0000000000000000000000000000000000000000000000000000000000000000611b93565b602060405161097d8282611219565b5f8152816109bb81830194601f198301368737604051978897600f60f81b895260e0858a015260e089019061027e565b90878203604089015261027e565b914660608701523060808701525f60a087015285830360c087015251918281520192915f5b8281106109ef57505050500390f35b8351855286955093810193928101926001016109e0565b3461027a57602036600319011261027a57610a226004356115cb565b600a54905f829160058411610a71575b610a3e9350600a6119ad565b80610a4f57506040515f8152602090f35b610a6c610a5d602092611618565b600a5f52825f20015460301c90565b6105ea565b9192610a7c8161184f565b810390811161066a57610a3e93600a5f5265ffffffffffff8260205f2001541665ffffffffffff8516105f14610ab3575091610a32565b929150610abf90611626565b90610a32565b3461027a57604036600319011261027a57602060ff610b08600435610ae86103a6565b905f52600b845260405f209060018060a01b03165f5260205260405f2090565b54166040519015158152f35b3461027a575f36600319011261027a576020610b2f43611802565b65ffffffffffff60405191168152f35b3461027a575f36600319011261027a576040515f600454610b5f8161112b565b808452906001811690811561036c5750600114610b865761030a836102fe81850382611219565b60045f9081527f8a35acfbc15ff81a39ae7d344fd709f28e8600b4aa8c65c6b64bfe7fe36bd19b939250905b808210610bca575090915081016020016102fe6102ee565b919260018160209254838588010152019101909291610bb2565b3461027a57602036600319011261027a576001600160a01b03610c05610390565b165f526009602052602060018060d01b03610c2260405f206116c2565b16604051908152f35b3461027a57604036600319011261027a57610c44610390565b602435610c4f6112ee565b6001600160a01b0382168015610d07576001600160a01b0383165f90815260208190526040902054828110610ce057925f80928461050f9603610ca18460018060a01b03165f525f60205260405f2090565b55610caf8560025403600255565b6040518581527fddf252ad1be2c89b69c2b068fc378daa952ba7f163c4a11628f55a4df523b3ef90602090a3611dec565b63391434e360e21b5f526001600160a01b039093166004525060249190915260445260645ffd5b634b637e8f60e11b5f525f60045260245ffd5b3461027a575f36600319011261027a5760206040515f8152f35b3461027a57604036600319011261027a57610d4d610390565b6024359033611264565b6064359060ff8216820361027a57565b6084359060ff8216820361027a57565b3461027a5760c036600319011261027a57610d90610390565b60243590604435610d9f610d57565b6084359060a43592804211610e745791610e249391610e16610e1b9460405160208101917fe48329057bfd03d55e49b547132e39cffd9c1820ad7b9d4c5307691425d15adf835260018060a01b038a1660408301528a6060830152608082015260808152610e0e60a082611219565b5190206116ec565b611bca565b90929192611c75565b6001600160a01b0381165f908152600760205260409020805460018101909155809303610e555761050f9250611641565b90506301d4b62360e61b5f5260018060a01b031660045260245260445ffd5b632341d78760e11b5f5260045260245ffd5b3461027a5760e036600319011261027a57610e9f610390565b610ea76103a6565b6044359060643592610eb7610d67565b60a43560c43590864211610f97576001600160a01b0384165f908152600760205260409020805460018101909155610f5c9390610f57909860405160208101917f6e71edae12b1b97f4d1f60370fef10105fa2faae0126114a169c64845d6126c9835260018060a01b0389169b8c604084015260018060a01b038b1660608401528b608084015260a083015260c082015260c08152610e0e60e082611219565b611712565b936001600160a01b03851603610f765761050f9350611721565b6325c0072360e11b5f526001600160a01b038085166004521660245260445ffd5b8663313c898160e11b5f5260045260245ffd5b3461027a575f36600319011261027a5760206040517f9f2df0fed2c77648de5860a4cc508cd0818c85b8b8a1ab4ceeef8d981c8956a68152f35b3461027a57604036600319011261027a5761050f6004356110036103a6565b9061101d610505825f52600b602052600160405f20015490565b611543565b3461027a57604036600319011261027a576020611070611040610390565b6110486103a6565b6001600160a01b039182165f9081526001855260408082209290931681526020919091522090565b54604051908152f35b3461027a57604036600319011261027a57611092610390565b6024359063ffffffff8216820361027a5761030a916110e1916110b361124c565b506110bc61124c565b506001600160a01b03165f9081526009602052604090206110db61124c565b50611cf1565b50604051906110ef826111f8565b5465ffffffffffff811680835260309190911c60209283019081526040805192835290516001600160d01b031692820192909252918291820190565b90600182811c92168015611159575b602083101461114557565b634e487b7160e01b5f52602260045260245ffd5b91607f169161113a565b5f92918154916111728361112b565b80835292600181169081156111c7575060011461118e57505050565b5f9081526020812093945091925b8383106111ad575060209250010190565b60018160209294939454838587010152019101919061119c565b915050602093945060ff929192191683830152151560051b010190565b634e487b7160e01b5f52604160045260245ffd5b6040810190811067ffffffffffffffff82111761121457604052565b6111e4565b90601f8019910116810190811067ffffffffffffffff82111761121457604052565b6040519061124a604083611219565b565b60405190611259826111f8565b5f6020838281520152565b9091506001600160a01b031615610d07576001600160a01b0316156107325760405162461bcd60e51b815260206004820152603a60248201527f546f6b656e79206e65206d6f7a686e6120706572656b6164757661747921205660448201527f6f6e79207072797669617a616e6920646f206b766172746972790000000000006064820152608490fd5b335f9081527ff70e363b3d7895af770c4a138460777d52eebd3cb9962ccc6b58721f6127bbc8602052604090205460ff161561132657565b63e2517d3f60e01b5f52336004527f9f2df0fed2c77648de5860a4cc508cd0818c85b8b8a1ab4ceeef8d981c8956a660245260445ffd5b5f818152600b6020908152604080832033845290915290205460ff16156113815750565b63e2517d3f60e01b5f523360045260245260445ffd5b5f818152600b602090815260408083206001600160a01b038616845290915290205460ff16611421575f818152600b602090815260408083206001600160a01b03861684529091529020805460ff1916600117905533916001600160a01b0316907f2f8788117e7eff1d82e926ec794901d17c78024a50270940304540a733656f0d5f80a4600190565b50505f90565b307f00000000000000000000000000000000000000000000000000000000000000006001600160a01b0316148061151a575b15611482577f000000000000000000000000000000000000000000000000000000000000000090565b60405160208101907f8b73c3c69bb8fe3d512ecc4cf759cc79239f7b179b0ffacaa9a75d522b39400f82527f000000000000000000000000000000000000000000000000000000000000000060408201527f000000000000000000000000000000000000000000000000000000000000000060608201524660808201523060a082015260a0815261151460c082611219565b51902090565b507f00000000000000000000000000000000000000000000000000000000000000004614611459565b5f818152600b602090815260408083206001600160a01b038616845290915290205460ff1615611421575f818152600b602090815260408083206001600160a01b03861684529091529020805460ff1916905533916001600160a01b0316907ff6391f5c32d9c69d2a47ea670b442974b53935d1edc7fd64eb21e047a839171b5f80a4600190565b65ffffffffffff6115db43611802565b16808210156115ee57506102b390611802565b90637669fc0f60e11b5f5260045260245260445ffd5b634e487b7160e01b5f52601160045260245ffd5b5f1981019190821161066a57565b906001820180921161066a57565b9190820180921161066a57565b6001600160a01b038181165f81815260086020526040812080548685166001600160a01b03198216811790925561124a969416946116bc9390928691907f3134e8a2e6d97e929a7e54011ea5485d7d196dd5f0ba4d4ef95803e8e3fc257f9080a46001600160a01b03165f9081526020819052604090205490565b91611a11565b805490816116d05750505f90565b815f1981011161066a575f525f199060205f2001015460301c90565b6042906116f7611427565b906040519161190160f01b8352600283015260228201522090565b916102b39391610e1b93611bca565b6001600160a01b03169081156117a9576001600160a01b03811692831561179657806117897f8c5be1e5ebec7d5bd14f71427d1e84f3dd0314c0f7b2291e5b200ac8c7c3b92593855f52600160205260405f209060018060a01b03165f5260205260405f2090565b55604051908152602090a3565b634a1406b160e11b5f525f60045260245ffd5b63e602df0560e01b5f525f60045260245ffd5b6001600160a01b03169081156117a9576001600160a01b03811615611796576117ff915f52600160205260405f209060018060a01b03165f5260205260405f2090565b55565b65ffffffffffff811161181a5765ffffffffffff1690565b6306dfcc6560e41b5f52603060045260245260445ffd5b811561183b570490565b634e487b7160e01b5f52601260045260245ffd5b60018111156102b357806001600160801b821015611970575b61191661190c6119026118f86118ee6118e46118d361191d9760048a600160401b6119229c1015611963575b640100000000811015611956575b62010000811015611949575b61010081101561193c575b601081101561192f575b1015611927575b60030260011c90565b6118dd818b611831565b0160011c90565b6118dd818a611831565b6118dd8189611831565b6118dd8188611831565b6118dd8187611831565b6118dd8186611831565b8093611831565b821190565b900390565b60011b6118ca565b60041c9160021b916118c3565b60081c9160041b916118b9565b60101c9160081b916118ae565b60201c9160101b916118a2565b60401c9160201b91611894565b505061192261191d61191661190c6119026118f86118ee6118e46118d36119978a60801c90565b9850600160401b97506118689650505050505050565b91905b8382106119bd5750505090565b9091928083169080841860011c820180921161066a57845f5265ffffffffffff8260205f2001541665ffffffffffff8416105f146119ff5750925b91906119b0565b939250611a0b90611626565b916119f8565b6001600160a01b03808316939291908116908185141580611b2a575b611a39575b5050505050565b81611abd575b505082611a4e575b8080611a32565b6001600160a01b03165f9081526009602052604090207fdec2bacdd2f05b59de34da9b523dff8be42e5e38e818c82fdb0bae774387a72491611a9a91611a949091611d1a565b90611d83565b604080516001600160d01b039384168152919092166020820152a25f8080611a47565b6001600160a01b03165f9081526009602052604090207fdec2bacdd2f05b59de34da9b523dff8be42e5e38e818c82fdb0bae774387a72490611b0890611b0286611d1a565b90611d4b565b604080516001600160d01b039384168152919092166020820152a25f80611a3f565b50831515611a2d565b60ff8114611b795760ff811690601f8211611b6a5760405191611b57604084611219565b6020808452838101919036833783525290565b632cd44ac360e21b5f5260045ffd5b506040516102b381611b8c816005611163565b0382611219565b60ff8114611bb75760ff811690601f8211611b6a5760405191611b57604084611219565b506040516102b381611b8c816006611163565b91907f7fffffffffffffffffffffffffffffff5d576e7357a4501ddfe92f46681b20a08411611c4c579160209360809260ff5f9560405194855216868401526040830152606082015282805260015afa15611c41575f516001600160a01b03811615611c3757905f905f90565b505f906001905f90565b6040513d5f823e3d90fd5b5050505f9160039190565b60041115611c6157565b634e487b7160e01b5f52602160045260245ffd5b611c7e81611c57565b80611c87575050565b611c9081611c57565b60018103611ca75763f645eedf60e01b5f5260045ffd5b611cb081611c57565b60028103611ccb575063fce698f760e01b5f5260045260245ffd5b80611cd7600392611c57565b14611cdf5750565b6335e2f38360e21b5f5260045260245ffd5b8054821015611d06575f5260205f2001905f90565b634e487b7160e01b5f52603260045260245ffd5b6001600160d01b038111611d34576001600160d01b031690565b6306dfcc6560e41b5f5260d060045260245260445ffd5b90611d5543611802565b90611d5f836116c2565b6001600160d01b03918216908216039190821161066a57611d7f92611efc565b9091565b90611d8d43611802565b90611d97836116c2565b6001600160d01b03918216908216019190821161066a57611d7f92611efc565b611dc043611802565b90611dcb600a6116c2565b6001600160d01b039182169082160390811161066a57611d7f91600a611efc565b9091906001600160a01b03168015611e53575b61124a926001600160a01b0316908115611e3b575b5f90815260086020526040808220549282529020546001600160a01b039081169116611a11565b611e4c611e4784611d1a565b611db7565b5050611e14565b611e5c82611d1a565b92611e6643611802565b93611e71600a6116c2565b6001600160d01b03918216908216019490851161066a5761124a94611e9791600a611efc565b9050509250611dff565b8054600160401b81101561121457611ebe91600182018155611cf1565b611ee957815160209092015160301b65ffffffffffff191665ffffffffffff92909216919091179055565b634e487b7160e01b5f525f60045260245ffd5b80549293928015611fa857611f13611f1e91611618565b825f5260205f200190565b8054603081901c9365ffffffffffff91821692918116808411611f9957879303611f655750611f6192509065ffffffffffff82549181199060301b169116179055565b9190565b915050611f6191611f85611f7761123b565b65ffffffffffff9093168352565b6001600160d01b0386166020830152611ea1565b632520601d60e01b5f5260045ffd5b5090611fcd91611fb9611f7761123b565b6001600160d01b0385166020830152611ea1565b5f919056fea2646970667358221220de5a1881f5f97af21db3933e128caff027e23183248f39fa9c21a9b863f3f4ef64736f6c634300081c00332f8788117e7eff1d82e926ec794901d17c78024a50270940304540a733656f0ddf7de25b7f1fd6d0b5205f0e18f1f35bd7b8d84cce336588d184533ce43a6f76f70e363b3d7895af770c4a138460777d52eebd3cb9962ccc6b58721f6127bbc8",
  "linkReferences": {},
  "deployedLinkReferences": {},
  "immutableReferences": {
    "4465": [
      {
        "length": 32,
        "start": 5216
      }
    ],
    "4467": [
      {
        "length": 32,
        "start": 5405
      }
    ],
    "4469": [
      {
        "length": 32,
        "start": 5162
      }
    ],
    "4471": [
      {
        "length": 32,
        "start": 5295
      }
    ],
    "4473": [
      {
        "length": 32,
        "start": 5333
      }
    ],
    "4476": [
      {
        "length": 32,
        "start": 2337
      }
    ],
    "4479": [
      {
        "length": 32,
        "start": 2378
      }
    ]
  },
  "inputSourceName": "project/contracts/OSBB_DAO.sol",
  "buildInfoId": "solc-0_8_28-3d74c8d075bef2f0266503b320ece014cafadced"
}