{
  "_format": "hh3-artifact-1",
  "contractName": "OSBB_DAO",
  "sourceName": "contracts/OSBB_DAO.sol",
  "abi": [
    {
      "inputs": [],
      "stateMutability": "nonpayable",
      "type": "constructor"
    },
    {
      "inputs": [],
      "name": "AccessControlBadConfirmation",
      "type": "error"
    },
    {
      "inputs": [
        {
          "internalType": "address",
          "name": "account",
          "type": "address"
        },
        {
          "internalType": "bytes32",
          "name": "neededRole",
          "type": "bytes32"
        }
      ],
      "name": "AccessControlUnauthorizedAccount",
      "type": "error"
    },
    {
      "inputs": [],
      "name": "ReentrancyGuardReentrantCall",
      "type": "error"
    },
    {
      "anonymous": false,
      "inputs": [
        {
          "indexed": true,
          "internalType": "address",
          "name": "from",
          "type": "address"
        },
        {
          "indexed": false,
          "internalType": "uint256",
          "name": "amount",
          "type": "uint256"
        }
      ],
      "name": "FundsDeposited",
      "type": "event"
    },
    {
      "anonymous": false,
      "inputs": [
        {
          "indexed": true,
          "internalType": "uint256",
          "name": "proposalId",
          "type": "uint256"
        }
      ],
      "name": "ProposalCanceled",
      "type": "event"
    },
    {
      "anonymous": false,
      "inputs": [
        {
          "indexed": true,
          "internalType": "uint256",
          "name": "proposalId",
          "type": "uint256"
        },
        {
          "indexed": true,
          "internalType": "address",
          "name": "proposer",
          "type": "address"
        },
        {
          "indexed": false,
          "internalType": "string",
          "name": "description",
          "type": "string"
        },
        {
          "indexed": false,
          "internalType": "uint256",
          "name": "amount",
          "type": "uint256"
        },
        {
          "indexed": false,
          "internalType": "address",
          "name": "executor",
          "type": "address"
        },
        {
          "indexed": false,
          "internalType": "uint256",
          "name": "deadline",
          "type": "uint256"
        }
      ],
      "name": "ProposalCreated",
      "type": "event"
    },
    {
      "anonymous": false,
      "inputs": [
        {
          "indexed": true,
          "internalType": "uint256",
          "name": "proposalId",
          "type": "uint256"
        },
        {
          "indexed": true,
          "internalType": "address",
          "name": "executor",
          "type": "address"
        },
        {
          "indexed": false,
          "internalType": "uint256",
          "name": "amount",
          "type": "uint256"
        }
      ],
      "name": "ProposalExecuted",
      "type": "event"
    },
    {
      "anonymous": false,
      "inputs": [
        {
          "indexed": true,
          "internalType": "uint256",
          "name": "proposalId",
          "type": "uint256"
        },
        {
          "indexed": false,
          "internalType": "uint256",
          "name": "queuedAt",
          "type": "uint256"
        }
      ],
      "name": "ProposalQueued",
      "type": "event"
    },
    {
      "anonymous": false,
      "inputs": [
        {
          "indexed": true,
          "internalType": "address",
          "name": "resident",
          "type": "address"
        },
        {
          "indexed": false,
          "internalType": "uint256",
          "name": "apartmentArea",
          "type": "uint256"
        },
        {
          "indexed": false,
          "internalType": "uint256",
          "name": "votingPower",
          "type": "uint256"
        }
      ],
      "name": "ResidentRegistered",
      "type": "event"
    },
    {
      "anonymous": false,
      "inputs": [
        {
          "indexed": true,
          "internalType": "address",
          "name": "resident",
          "type": "address"
        },
        {
          "indexed": false,
          "internalType": "uint256",
          "name": "votingPower",
          "type": "uint256"
        }
      ],
      "name": "ResidentRemoved",
      "type": "event"
    },
    {
      "anonymous": false,
      "inputs": [
        {
          "indexed": true,
          "internalType": "bytes32",
          "name": "role",
          "type": "bytes32"
        },
        {
          "indexed": true,
          "internalType": "bytes32",
          "name": "previousAdminRole",
          "type": "bytes32"
        },
        {
          "indexed": true,
          "internalType": "bytes32",
          "name": "newAdminRole",
          "type": "bytes32"
        }
      ],
      "name": "RoleAdminChanged",
      "type": "event"
    },
    {
      "anonymous": false,
      "inputs": [
        {
          "indexed": true,
          "internalType": "bytes32",
          "name": "role",
          "type": "bytes32"
        },
        {
          "indexed": true,
          "internalType": "address",
          "name": "account",
          "type": "address"
        },
        {
          "indexed": true,
          "internalType": "address",
          "name": "sender",
          "type": "address"
        }
      ],
      "name": "RoleGranted",
      "type": "event"
    },
    {
      "anonymous": false,
      "inputs": [
        {
          "indexed": true,
          "internalType": "bytes32",
          "name": "role",
          "type": "bytes32"
        },
        {
          "indexed": true,
          "internalType": "address",
          "name": "account",
          "type": "address"
        },
        {
          "indexed": true,
          "internalType": "address",
          "name": "sender",
          "type": "address"
        }
      ],
      "name": "RoleRevoked",
      "type": "event"
    },
    {
      "anonymous": false,
      "inputs": [
        {
          "indexed": true,
          "internalType": "address",
          "name": "voter",
          "type": "address"
        },
        {
          "indexed": true,
          "internalType": "uint256",
          "name": "proposalId",
          "type": "uint256"
        },
        {
          "indexed": false,
          "internalType": "bool",
          "name": "support",
          "type": "bool"
        },
        {
          "indexed": false,
          "internalType": "uint256",
          "name": "votes",
          "type": "uint256"
        }
      ],
      "name": "VoteCast",
      "type": "event"
    },
    {
      "stateMutability": "payable",
      "type": "fallback"
    },
    {
      "inputs": [],
      "name": "ADMIN_ROLE",
      "outputs": [
        {
          "internalType": "bytes32",
          "name": "",
          "type": "bytes32"
        }
      ],
      "stateMutability": "view",
      "type": "function"
    },
    {
      "inputs": [],
      "name": "APPROVAL_THRESHOLD",
      "outputs": [
        {
          "internalType": "uint256",
          "name": "",
          "type": "uint256"
        }
      ],
      "stateMutability": "view",
      "type": "function"
    },
    {
      "inputs": [],
      "name": "DEFAULT_ADMIN_ROLE",
      "outputs": [
        {
          "internalType": "bytes32",
          "name": "",
          "type": "bytes32"
        }
      ],
      "stateMutability": "view",
      "type": "function"
    },
    {
      "inputs": [],
      "name": "MIN_VOTING_PERIOD",
      "outputs": [
        {
          "internalType": "uint256",
          "name": "",
          "type": "uint256"
        }
      ],
      "stateMutability": "view",
      "type": "function"
    },
    {
      "inputs": [],
      "name": "QUORUM_PERCENTAGE",
      "outputs": [
        {
          "internalType": "uint256",
          "name": "",
          "type": "uint256"
        }
      ],
      "stateMutability": "view",
      "type": "function"
    },
    {
      "inputs": [],
      "name": "TIMELOCK_DELAY",
      "outputs": [
        {
          "internalType": "uint256",
          "name": "",
          "type": "uint256"
        }
      ],
      "stateMutability": "view",
      "type": "function"
    },
    {
      "inputs": [],
      "name": "TOKENS_PER_SQUARE_METER",
      "outputs": [
        {
          "internalType": "uint256",
          "name": "",
          "type": "uint256"
        }
      ],
      "stateMutability": "view",
      "type": "function"
    },
    {
      "inputs": [
        {
          "internalType": "uint256",
          "name": "_proposalId",
          "type": "uint256"
        }
      ],
      "name": "cancelProposal",
      "outputs": [],
      "stateMutability": "nonpayable",
      "type": "function"
    },
    {
      "inputs": [
        {
          "internalType": "uint256",
          "name": "_proposalId",
          "type": "uint256"
        },
        {
          "internalType": "bool",
          "name": "_support",
          "type": "bool"
        }
      ],
      "name": "castVote",
      "outputs": [],
      "stateMutability": "nonpayable",
      "type": "function"
    },
    {
      "inputs": [
        {
          "internalType": "string",
          "name": "_description",
          "type": "string"
        },
        {
          "internalType": "uint256",
          "name": "_amount",
          "type": "uint256"
        },
        {
          "internalType": "address payable",
          "name": "_executor",
          "type": "address"
        },
        {
          "internalType": "uint256",
          "name": "_votingPeriod",
          "type": "uint256"
        }
      ],
      "name": "createProposal",
      "outputs": [
        {
          "internalType": "uint256",
          "name": "",
          "type": "uint256"
        }
      ],
      "stateMutability": "nonpayable",
      "type": "function"
    },
    {
      "inputs": [],
      "name": "depositFunds",
      "outputs": [],
      "stateMutability": "payable",
      "type": "function"
    },
    {
      "inputs": [
        {
          "internalType": "uint256",
          "name": "_proposalId",
          "type": "uint256"
        }
      ],
      "name": "executeProposal",
      "outputs": [],
      "stateMutability": "nonpayable",
      "type": "function"
    },
    {
      "inputs": [],
      "name": "getBalance",
      "outputs": [
        {
          "internalType": "uint256",
          "name": "",
          "type": "uint256"
        }
      ],
      "stateMutability": "view",
      "type": "function"
    },
    {
      "inputs": [],
      "name": "getGovernanceToken",
      "outputs": [
        {
          "internalType": "address",
          "name": "",
          "type": "address"
        }
      ],
      "stateMutability": "view",
      "type": "function"
    },
    {
      "inputs": [
        {
          "internalType": "uint256",
          "name": "proposalId",
          "type": "uint256"
        }
      ],
      "name": "getProposal",
      "outputs": [
        {
          "internalType": "uint256",
          "name": "id",
          "type": "uint256"
        },
        {
          "internalType": "string",
          "name": "description",
          "type": "string"
        },
        {
          "internalType": "uint256",
          "name": "amount",
          "type": "uint256"
        },
        {
          "internalType": "address",
          "name": "executor",
          "type": "address"
        },
        {
          "internalType": "uint256",
          "name": "deadline",
          "type": "uint256"
        },
        {
          "internalType": "uint256",
          "name": "votesFor",
          "type": "uint256"
        },
        {
          "internalType": "uint256",
          "name": "votesAgainst",
          "type": "uint256"
        },
        {
          "internalType": "bool",
          "name": "executed",
          "type": "bool"
        },
        {
          "internalType": "bool",
          "name": "canceled",
          "type": "bool"
        },
        {
          "internalType": "bool",
          "name": "succeeded",
          "type": "bool"
        },
        {
          "internalType": "uint256",
          "name": "snapshotId",
          "type": "uint256"
        }
      ],
      "stateMutability": "view",
      "type": "function"
    },
    {
      "inputs": [],
      "name": "getProposalCount",
      "outputs": [
        {
          "internalType": "uint256",
          "name": "",
          "type": "uint256"
        }
      ],
      "stateMutability": "view",
      "type": "function"
    },
    {
      "inputs": [],
      "name": "getResidentCount",
      "outputs": [
        {
          "internalType": "uint256",
          "name": "",
          "type": "uint256"
        }
      ],
      "stateMutability": "view",
      "type": "function"
    },
    {
      "inputs": [
        {
          "internalType": "address",
          "name": "_resident",
          "type": "address"
        }
      ],
      "name": "getResidentInfo",
      "outputs": [
        {
          "internalType": "uint256",
          "name": "apartmentArea",
          "type": "uint256"
        },
        {
          "internalType": "uint256",
          "name": "votingPower",
          "type": "uint256"
        },
        {
          "internalType": "bool",
          "name": "isActive",
          "type": "bool"
        }
      ],
      "stateMutability": "view",
      "type": "function"
    },
    {
      "inputs": [
        {
          "internalType": "bytes32",
          "name": "role",
          "type": "bytes32"
        }
      ],
      "name": "getRoleAdmin",
      "outputs": [
        {
          "internalType": "bytes32",
          "name": "",
          "type": "bytes32"
        }
      ],
      "stateMutability": "view",
      "type": "function"
    },
    {
      "inputs": [
        {
          "internalType": "uint256",
          "name": "_proposalId",
          "type": "uint256"
        },
        {
          "internalType": "address",
          "name": "_voter",
          "type": "address"
        }
      ],
      "name": "getVoteReceipt",
      "outputs": [
        {
          "internalType": "bool",
          "name": "hasVoted",
          "type": "bool"
        },
        {
          "internalType": "bool",
          "name": "support",
          "type": "bool"
        },
        {
          "internalType": "uint256",
          "name": "votes",
          "type": "uint256"
        }
      ],
      "stateMutability": "view",
      "type": "function"
    },
    {
      "inputs": [],
      "name": "governanceToken",
      "outputs": [
        {
          "internalType": "contract OSBB_Token",
          "name": "",
          "type": "address"
        }
      ],
      "stateMutability": "view",
      "type": "function"
    },
    {
      "inputs": [
        {
          "internalType": "bytes32",
          "name": "role",
          "type": "bytes32"
        },
        {
          "internalType": "address",
          "name": "account",
          "type": "address"
        }
      ],
      "name": "grantRole",
      "outputs": [],
      "stateMutability": "nonpayable",
      "type": "function"
    },
    {
      "inputs": [
        {
          "internalType": "bytes32",
          "name": "role",
          "type": "bytes32"
        },
        {
          "internalType": "address",
          "name": "account",
          "type": "address"
        }
      ],
      "name": "hasRole",
      "outputs": [
        {
          "internalType": "bool",
          "name": "",
          "type": "bool"
        }
      ],
      "stateMutability": "view",
      "type": "function"
    },
    {
      "inputs": [
        {
          "internalType": "uint256",
          "name": "_proposalId",
          "type": "uint256"
        }
      ],
      "name": "proposalSucceeded",
      "outputs": [
        {
          "internalType": "bool",
          "name": "",
          "type": "bool"
        }
      ],
      "stateMutability": "view",
      "type": "function"
    },
    {
      "inputs": [
        {
          "internalType": "uint256",
          "name": "",
          "type": "uint256"
        }
      ],
      "name": "proposals",
      "outputs": [
        {
          "internalType": "uint256",
          "name": "id",
          "type": "uint256"
        },
        {
          "internalType": "string",
          "name": "description",
          "type": "string"
        },
        {
          "internalType": "uint256",
          "name": "amount",
          "type": "uint256"
        },
        {
          "internalType": "address payable",
          "name": "executor",
          "type": "address"
        },
        {
          "internalType": "uint256",
          "name": "deadline",
          "type": "uint256"
        },
        {
          "internalType": "uint256",
          "name": "votesFor",
          "type": "uint256"
        },
        {
          "internalType": "uint256",
          "name": "votesAgainst",
          "type": "uint256"
        },
        {
          "internalType": "uint256",
          "name": "snapshotId",
          "type": "uint256"
        },
        {
          "internalType": "bool",
          "name": "executed",
          "type": "bool"
        },
        {
          "internalType": "bool",
          "name": "canceled",
          "type": "bool"
        }
      ],
      "stateMutability": "view",
      "type": "function"
    },
    {
      "inputs": [
        {
          "internalType": "uint256",
          "name": "_proposalId",
          "type": "uint256"
        }
      ],
      "name": "queueProposal",
      "outputs": [],
      "stateMutability": "nonpayable",
      "type": "function"
    },
    {
      "inputs": [
        {
          "internalType": "uint256",
          "name": "",
          "type": "uint256"
        }
      ],
      "name": "queuedAt",
      "outputs": [
        {
          "internalType": "uint256",
          "name": "",
          "type": "uint256"
        }
      ],
      "stateMutability": "view",
      "type": "function"
    },
    {
      "inputs": [
        {
          "internalType": "address",
          "name": "_resident",
          "type": "address"
        },
        {
          "internalType": "uint256",
          "name": "_apartmentArea",
          "type": "uint256"
        }
      ],
      "name": "registerResident",
      "outputs": [],
      "stateMutability": "nonpayable",
      "type": "function"
    },
    {
      "inputs": [
        {
          "internalType": "address",
          "name": "_resident",
          "type": "address"
        }
      ],
      "name": "removeResident",
      "outputs": [],
      "stateMutability": "nonpayable",
      "type": "function"
    },
    {
      "inputs": [
        {
          "internalType": "bytes32",
          "name": "role",
          "type": "bytes32"
        },
        {
          "internalType": "address",
          "name": "callerConfirmation",
          "type": "address"
        }
      ],
      "name": "renounceRole",
      "outputs": [],
      "stateMutability": "nonpayable",
      "type": "function"
    },
    {
      "inputs": [
        {
          "internalType": "uint256",
          "name": "",
          "type": "uint256"
        }
      ],
      "name": "residentList",
      "outputs": [
        {
          "internalType": "address",
          "name": "",
          "type": "address"
        }
      ],
      "stateMutability": "view",
      "type": "function"
    },
    {
      "inputs": [
        {
          "internalType": "address",
          "name": "",
          "type": "address"
        }
      ],
      "name": "residents",
      "outputs": [
        {
          "internalType": "uint256",
          "name": "apartmentArea",
          "type": "uint256"
        },
        {
          "internalType": "address",
          "name": "residentAddress",
          "type": "address"
        },
        {
          "internalType": "bool",
          "name": "isActive",
          "type": "bool"
        }
      ],
      "stateMutability": "view",
      "type": "function"
    },
    {
      "inputs": [
        {
          "internalType": "bytes32",
          "name": "role",
          "type": "bytes32"
        },
        {
          "internalType": "address",
          "name": "account",
          "type": "address"
        }
      ],
      "name": "revokeRole",
      "outputs": [],
      "stateMutability": "nonpayable",
      "type": "function"
    },
    {
      "inputs": [
        {
          "internalType": "bytes4",
          "name": "interfaceId",
          "type": "bytes4"
        }
      ],
      "name": "supportsInterface",
      "outputs": [
        {
          "internalType": "bool",
          "name": "",
          "type": "bool"
        }
      ],
      "stateMutability": "view",
      "type": "function"
    },
    {
      "inputs": [],
      "name": "totalArea",
      "outputs": [
        {
          "internalType": "uint256",
          "name": "",
          "type": "uint256"
        }
      ],
      "stateMutability": "view",
      "type": "function"
    },
    {
      "inputs": [
        {
          "internalType": "uint256",
          "name": "",
          "type": "uint256"
        },
        {
          "internalType": "address",
          "name": "",
          "type": "address"
        }
      ],
      "name": "voteReceipts",
      "outputs": [
        {
          "internalType": "bool",
          "name": "hasVoted",
          "type": "bool"
        },
        {
          "internalType": "bool",
          "name": "support",
          "type": "bool"
        },
        {
          "internalType": "uint256",
          "name": "votes",
          "type": "uint256"
        }
      ],
      "stateMutability": "view",
      "type": "function"
    },
    {
      "stateMutability": "payable",
      "type": "receive"
    }
  ],
  "bytecode": "0x6080604052346100f257600180556100163361015f565b50610020336101d5565b506040516128a88082016001600160401b03811183821017610128578291612689833903905ff080156100e757600280546001600160a01b0319166001600160a01b0392909216918217905560405163d539139360e01b8152602081600481855afa9081156100e7575f916100f6575b50813b156100f2575f91604483926040519485938492632f2ff15d60e01b845260048401523060248401525af180156100e7576100d7575b60405161242090816102698239f35b5f6100e19161013c565b5f6100c8565b6040513d5f823e3d90fd5b5f80fd5b90506020813d602011610120575b816101116020938361013c565b810103126100f257515f610090565b3d9150610104565b634e487b7160e01b5f52604160045260245ffd5b601f909101601f19168101906001600160401b0382119082101761012857604052565b6001600160a01b0381165f9081525f516020614f715f395f51905f52602052604090205460ff166101d0576001600160a01b03165f8181525f516020614f715f395f51905f5260205260408120805460ff191660011790553391905f516020614f315f395f51905f528180a4600190565b505f90565b6001600160a01b0381165f9081525f516020614f515f395f51905f52602052604090205460ff166101d0576001600160a01b03165f8181525f516020614f515f395f51905f5260205260408120805460ff191660011790553391907fa49807205ce4d355092ef5a8a18f56e8913cf4a201fbe287825b095693c21775905f516020614f315f395f51905f529080a460019056fe60806040526004361015610026575b361561001e5761001c61211d565b005b61001c61211d565b5f5f3560e01c8063013cf08b14611c7357806301ffc9a714611c1d5780630d61b519146119cf57806311de569c146118e957806312065fe0146118ce57806315171c78146118b357806315373e3d14611596578063215809ca14611579578063248a9ca3146115475780632f2ff15d1461150a57806336568abe146114c65780633ab34290146114ab5780633f8a037d1461148357806349353df514611466578063566320bd146111a6578063597de98714610ed35780635ba1c1a914610eb557806370a8585d146108ef57806375b238fc146108b457806391d148541461086b578063920f80eb146107c657806394a14a34146106bf5780639ac498de14610695578063a217fddf14610679578063c08cc02d1461065b578063c60043ab1461063d578063c7f758a814610553578063ce2e1d07146104df578063d18bf3b0146104b6578063d547741f1461046f578063e0a8f6f5146102e9578063e2c41dbc146102a3578063e4d65d5414610248578063ee8a7c151461022c578063f96dae0a146102035763ff1a3ef1146101bd575061000e565b3461020057602036600319011261020057600435906009548210156102005760206101e783611eac565b905460405160039290921b1c6001600160a01b03168152f35b80fd5b50346102005780600319360112610200576002546040516001600160a01b039091168152602090f35b5034610200578060031936011261020057602060405160508152f35b5034610200576020366003190112610200576060906040906001600160a01b03610270611e64565b16815260056020522060ff6001825492015460405192835260018060a01b038116602084015260a01c1615156040820152f35b5080600319360112610200576102ba34151561202d565b6040513481527f543ba50a5eec5e6178218e364b1d0f396157b3c8fa278522c2cb7fd99407d47460203392a280f35b50346102005760203660031901126102005760043561030661214b565b8015158080610463575b61031990611ed8565b818352600660205260408320828452600860205261033b604085205415612079565b600881019182549161035060ff841615611fe1565b60ff8360081c1661041e57600401544211610399575b5061ff0019166101001790557f789cf55be980739dad1d0699b93b58e806b51c9d96619bfa8fe0a28abaa7b30c8280a280f35b80610412575b6103a890611ed8565b6103b1836120e0565b6103bb575f610366565b60405162461bcd60e51b815260206004820152602960248201527f4e65206d6f7a686e6120736b61737576617479206f646f6272656e752070726f604482015268706f7a79747369797560b81b6064820152608490fd5b5060045483111561039f565b60405162461bcd60e51b815260206004820152601a60248201527f50726f706f7a796369796120767a686520736b61736f76616e610000000000006044820152606490fd5b50600454821115610310565b5034610200576040366003190112610200576104b260043561048f611e7a565b906104ad6104a8825f525f602052600160405f20015490565b6121ba565b61227a565b5080f35b50346102005760203660031901126102005760206104d56004356120b6565b6040519015158152f35b50346102005760403660031901126102005760406104fb611e7a565b9160043581526007602052209060018060a01b03165f5260205260405f20600181549101549061054f604051928260ff80869560081c16911684604091949392606082019515158252151560208201520152565b0390f35b50346102005760203660031901126102005761058f60406004359283151580610631575b61058090611ed8565b838152600660205220916122fa565b9080549060028101549060018060a01b036003820154169360ff600483015460058401546006850154906008860154926105d0600160078901549801611da0565b996105ef6040519b8c9b8c5261016060208d01526101608c0190611e40565b9860408b015260608a0152608089015260a088015260c0870152818116151560e087015260081c16151561010085015215156101208401526101408301520390f35b50600454841115610577565b50346102005780600319360112610200576020600354604051908152f35b50346102005780600319360112610200576020600454604051908152f35b5034610200578060031936011261020057602090604051908152f35b50346102005760203660031901126102005760406020916004358152600883522054604051908152f35b503461020057602036600319011261020057600435801515806107ba575b6106e690611ed8565b808252600660205261072060046040842061071760ff600883015461070d82821615611f5e565b60081c1615611f9d565b01544211611f1c565b610729816120b6565b1561077f578082526008602052610744604083205415612079565b80825260086020524260408320557f9a2e42fd6722813d69113e7d0079d3d940171428df7373df9c7f7617cfda28926020604051428152a280f35b60405162461bcd60e51b8152602060048201526013602482015272141c9bdc1bdcd85b081b9bdd081c185cdcd959606a1b6044820152606490fd5b506004548111156106dd565b5034610200576040366003190112610200576040600435916107e6611e7a565b928015158061085f575b6107f990611ed8565b81526007602052209060018060a01b03165f5260205260405f2060405161081f81611d62565b815460ff808216151580845260089290921c1615156020808401829052600190940154604093840181905283519283529382015290810191909152606090f35b506004548111156107f0565b5034610200576040366003190112610200576040610887611e7a565b91600435815280602052209060018060a01b03165f52602052602060ff60405f2054166040519015158152f35b503461020057806003193601126102005760206040517fa49807205ce4d355092ef5a8a18f56e8913cf4a201fbe287825b095693c217758152f35b50346102005760803660031901126102005760043567ffffffffffffffff8111610eb15736602382011215610eb1578181600401359161092e83611e90565b9261093c6040519485611d7e565b8084523660248284010111610ead57806024602093018386013783010152604435906001600160a01b0382168203610ead576002546040516370a0823160e01b81523360048201526064359391602090829060249082906001600160a01b03165afa908115610ea2578591610e6c575b5015610e14576109bf602435151561202d565b4760243511610dcf576001600160a01b03811615610d8a576203f4808310610d4557815115610d0057600454925f198414610cec57610a05906001850160045542611fd4565b4315610ce6575f194301438111610cd2575b60405190610140820182811067ffffffffffffffff821117610cbe576040526001860182526020820190858252602435604084015260018060a01b03851660608401528360808401528760a08401528760c084015260e0830152866101008301528661012083015260018601875260066020526040872090825182555180519067ffffffffffffffff8211610caa57610ab36001840154611d2a565b601f8111610c66575b50976020988991601f8411600114610bf2579280600893610b819796936101209692610be7575b50508160011b915f199060031b1c19161760018201555b6040840151600282015560608401516003820180546001600160a01b0319166001600160a01b039092169190911790556080840151600482015560a0840151600582015560c0840151600682015560e0840151600782015561010084015191018054929093015161ff0090151560081b1661ffff1990921660ff9115159190911617179055565b610b9660405193608085526080850190611e40565b916024358685015260018060a01b0316604084015260608301527f910d93d994b68742cb73e0dc68423edcd8986a20bcd70f6361546a63de317b6233928060018601930390a3600160405191018152f35b015190505f80610ae3565b9190600185018352818320925b601f1985168110610c4f575083600893610b8197969360019361012097601f19811610610c37575b505050811b016001820155610afa565b01515f1960f88460031b161c191690555f8080610c27565b91928b600181928685015181550194019201610bff565b600184018a5260208a20601f840160051c810160208510610ca3575b601f830160051c82018110610c98575050610abc565b8b8155600101610c82565b5080610c82565b634e487b7160e01b89526041600452602489fd5b634e487b7160e01b88526041600452602488fd5b634e487b7160e01b86526011600452602486fd5b84610a17565b634e487b7160e01b85526011600452602485fd5b60405162461bcd60e51b815260206004820152601c60248201527f4f707973206e65206d6f7a6865206275747920706f726f7a686e696d000000006044820152606490fd5b60405162461bcd60e51b815260206004820152601a60248201527f506572696f6420686f6c6f737576616e6e7961207a616d616c6f0000000000006044820152606490fd5b60405162461bcd60e51b815260206004820152601a60248201527f4e657669726e61206164726573612076796b6f6e6176747379610000000000006044820152606490fd5b60405162461bcd60e51b815260206004820152601a60248201527f4e65646f737461746e6f206b6f7368746976207520666f6e64690000000000006044820152606490fd5b60405162461bcd60e51b815260206004820152602a60248201527f5520766173206e656d617965207072617661207374766f7275766174792070726044820152696f706f7a79747369796960b01b6064820152608490fd5b90506020813d602011610e9a575b81610e8760209383611d7e565b81010312610e9657515f6109ac565b5f80fd5b3d9150610e7a565b6040513d87823e3d90fd5b8280fd5b5080fd5b503461020057806003193601126102005760206040516202a3008152f35b503461020057602036600319011261020057610eed611e64565b610ef561214b565b6001600160a01b0381168083526005602052604083206001015460a01c60ff16156111615760249181845260056020526040842054602060018060a01b0360025416604051958680926370a0823160e01b82528760048301525afa938415610ea257859461112d575b50600354908103908111610cec57600355818452600560205260408420600101805460ff60a01b191690558390836110bd575b505b600954808210156110915782610fa883611eac565b905460039190911b1c6001600160a01b031614610fc85750600101610f93565b9192915f198101908111610cec5790610ffe610fe661102293611eac565b905460039190911b1c6001600160a01b031691611eac565b81546001600160a01b0393841660039290921b91821b9390911b1916919091179055565b600954801561107d577f8806ba4e475d56cad21f2a203d55e840ce59cd8ce186a4c3f085c874fc8b7d93916020915f190161105c81611eac565b81549060018060a01b039060031b1b191690556009555b604051908152a280f35b634e487b7160e01b84526031600452602484fd5b50509060207f8806ba4e475d56cad21f2a203d55e840ce59cd8ce186a4c3f085c874fc8b7d9391611073565b6002546001600160a01b0316803b15610ead57604051632770a7eb60e21b81526001600160a01b039290921660048301526024820185905282908290604490829084905af180156111225715610f91578161111791611d7e565b610ead57825f610f91565b6040513d84823e3d90fd5b9093506020813d602011611159575b8161114960209383611d7e565b81010312610e965751925f610f5e565b3d915061113c565b60405162461bcd60e51b815260206004820152601d60248201527f4d6573686b616e657473206e65207a61726579657374726f76616e79790000006044820152606490fd5b5034610e96576040366003190112610e96576111c0611e64565b6024356111cb61214b565b6001600160a01b0382165f8181526005602052604090206001015490929060a01c60ff166114215781156113d057821561139a5760648202908282046064036113865760405161121a81611d62565b8381526020808201868152600160408085018281525f8a8152600590955293209351845590519201805491516001600160a81b03199092166001600160a01b03939093169290921790151560a01b60ff60a01b16179055600954680100000000000000008110156113725781610ffe8260016112999401600955611eac565b6112a583600354611fd4565b6003556002546001600160a01b0316803b15610e96576040516340c10f1960e01b81526001600160a01b03929092166004830152602482018390525f908290604490829084905af180156113675761132c575b507ff6a8661f1211a4aeee6eb7b5618fca381c8a710df1076fe40a5c9fdf5b12b6fb9160409182519182526020820152a280f35b60409194509161135d5f7ff6a8661f1211a4aeee6eb7b5618fca381c8a710df1076fe40a5c9fdf5b12b6fb94611d7e565b5f949150916112f8565b6040513d5f823e3d90fd5b634e487b7160e01b5f52604160045260245ffd5b634e487b7160e01b5f52601160045260245ffd5b60405162461bcd60e51b815260206004820152600e60248201526d4e657669726e612061647265736160901b6044820152606490fd5b60405162461bcd60e51b8152602060048201526024808201527f506c6f7368636861206b76617274697279206d61796520627574792062696c736044820152630686520360e41b6064820152608490fd5b60405162461bcd60e51b815260206004820152601f60248201527f4d6573686b616e65747320767a6865207a61726579657374726f76616e7979006044820152606490fd5b34610e96575f366003190112610e96576020600954604051908152f35b34610e96575f366003190112610e96576002546040516001600160a01b039091168152602090f35b34610e96575f366003190112610e9657602060405160328152f35b34610e96576040366003190112610e96576114df611e7a565b336001600160a01b038216036114fb5761001c9060043561227a565b63334bd91960e11b5f5260045ffd5b34610e96576040366003190112610e965761001c600435611529611e7a565b906115426104a8825f525f602052600160405f20015490565b6121f2565b34610e96576020366003190112610e965760206115716004355f525f602052600160405f20015490565b604051908152f35b34610e96575f366003190112610e965760206040516203f4808152f35b34610e96576040366003190112610e965760043560243580151590818103610e9657821515806118a7575b6115ca90611ed8565b825f52600660205260405f2060078101549182431115611863576004820154421161181f5760ff600883015461160282821615611fe1565b60081c166117e2575f85815260076020908152604080832033845290915290205460ff166117a557600254604051630748d63560e31b81523360048201526024810194909452602090849060449082906001600160a01b03165afa928315611367575f93611771575b50821561172c5760405161167e81611d62565b6001808252602080830187815260408085018881525f8b815260078552828120338252909452922093518454915161ff0090151560081b1661ffff1990921660ff91151591909116171783555191015515611717576005016116e1828254611fd4565b90555b60405191825260208201527f877856338e13f63d0c36822ff0ef736b80934cd90574a3a5bc9262c39d217c4660403392a3005b600601611725828254611fd4565b90556116e4565b60405162461bcd60e51b815260206004820152601960248201527f5520766173206e656d61796520707261766120686f6c6f7375000000000000006044820152606490fd5b9092506020813d60201161179d575b8161178d60209383611d7e565b81010312610e965751918561166b565b3d9150611780565b60405162461bcd60e51b8152602060048201526015602482015274567920767a68652070726f686f6c6f737576616c7960581b6044820152606490fd5b60405162461bcd60e51b815260206004820152601560248201527450726f706f7a796369796120736b61736f76616e6160581b6044820152606490fd5b606460405162461bcd60e51b815260206004820152602060248201527f5465726d696e20686f6c6f737576616e6e7961207a616b696e636879767379616044820152fd5b606460405162461bcd60e51b815260206004820152602060248201527f476f6c6f737576616e6e7961207368636865206e6520706f6368616c6f7379616044820152fd5b506004548311156115c1565b34610e96575f366003190112610e9657602060405160648152f35b34610e96575f366003190112610e9657602047604051908152f35b34610e96576020366003190112610e96576001600160a01b0361190a611e64565b16805f52600560205260405f2060405161192381611d62565b60ff6040600184549485855201549260018060a01b0384166020820152019160a01c1615158152602060018060a01b0360025416936024604051809681936370a0823160e01b835260048301525afa908115611367575f9161199a575b606093505115159060405192835260208301526040820152f35b90506020833d6020116119c7575b816119b560209383611d7e565b81010312610e96576060925190611980565b3d91506119a8565b34610e96576020366003190112610e9657600435600260015414611c0e57600260015580151580611c02575b611a0490611ed8565b805f52600660205260405f2090611a2060048301544211611f1c565b6008820191825492611a3560ff851615611f5e565b611a4560ff8560081c1615611f9d565b6002820193845492478411611bca57845f52600860205260405f205415611b8f57845f52600860205260405f20546202a3008101809111611386574210611b535760ff19909116600117909155600301805490915f91829182918291906001600160a01b03165af13d15611b4e573d611abd81611e90565b90611acb6040519283611d7e565b81525f60203d92013e5b15611b175760207f3b7c90df35b419337cff0919fe91849006607bb66c4373623f06f9d48c1ebb989160018060a01b039054169354604051908152a360018055005b60405162461bcd60e51b815260206004820152600f60248201526e151c985b9cd9995c8819985a5b1959608a1b6044820152606490fd5b611ad5565b60405162461bcd60e51b8152602060048201526014602482015273151a5b595b1bd8dac81b9bdd08195e1c1a5c995960621b6044820152606490fd5b60405162461bcd60e51b8152602060048201526013602482015272141c9bdc1bdcd85b081b9bdd081c5d595d5959606a1b6044820152606490fd5b60405162461bcd60e51b815260206004820152601060248201526f4e6f7420656e6f7567682066756e647360801b6044820152606490fd5b506004548111156119fb565b633ee5aeb560e01b5f5260045ffd5b34610e96576020366003190112610e965760043563ffffffff60e01b8116809103610e9657602090637965db0b60e01b8114908115611c62575b506040519015158152f35b6301ffc9a760e01b14905082611c57565b34610e96576020366003190112610e96576004355f52600660205260405f208054611ca060018301611da0565b9160ff60028201549160018060a01b0360038201541690600481015460058201546006830154916008600785015494015494611cf06040519a8b9a8b5261014060208c01526101408b0190611e40565b9760408a01526060890152608088015260a087015260c086015260e0850152818116151561010085015260081c1615156101208301520390f35b90600182811c92168015611d58575b6020831014611d4457565b634e487b7160e01b5f52602260045260245ffd5b91607f1691611d39565b6060810190811067ffffffffffffffff82111761137257604052565b90601f8019910116810190811067ffffffffffffffff82111761137257604052565b9060405191825f825492611db384611d2a565b8084529360018116908115611e1e5750600114611dda575b50611dd892500383611d7e565b565b90505f9291925260205f20905f915b818310611e02575050906020611dd8928201015f611dcb565b6020919350806001915483858901015201910190918492611de9565b905060209250611dd894915060ff191682840152151560051b8201015f611dcb565b805180835260209291819084018484015e5f828201840152601f01601f1916010190565b600435906001600160a01b0382168203610e9657565b602435906001600160a01b0382168203610e9657565b67ffffffffffffffff811161137257601f01601f191660200190565b600954811015611ec45760095f5260205f2001905f90565b634e487b7160e01b5f52603260045260245ffd5b15611edf57565b60405162461bcd60e51b815260206004820152601560248201527450726f706f7a7963697961206e652069736e75796560581b6044820152606490fd5b15611f2357565b60405162461bcd60e51b8152602060048201526013602482015272159bdd1a5b99c81b9bdd08199a5b9a5cda1959606a1b6044820152606490fd5b15611f6557565b60405162461bcd60e51b815260206004820152601060248201526f105b1c9958591e48195e1958dd5d195960821b6044820152606490fd5b15611fa457565b60405162461bcd60e51b815260206004820152600860248201526710d85b98d95b195960c21b6044820152606490fd5b9190820180921161138657565b15611fe857565b60405162461bcd60e51b815260206004820152601960248201527f50726f706f7a796369796120767a68652076796b6f6e616e61000000000000006044820152606490fd5b1561203457565b60405162461bcd60e51b815260206004820152601760248201527f53756d61206d61796520627574792062696c73686520300000000000000000006044820152606490fd5b1561208057565b60405162461bcd60e51b815260206004820152600e60248201526d105b1c9958591e481c5d595d595960921b6044820152606490fd5b6120d190801515806120d4575b6120cc90611ed8565b6120e0565b90565b506004548111156120c3565b805f526006602052600860405f20015460ff8160081c16908115612112575b5061210d576120d1906122fa565b505f90565b60ff9150165f6120ff565b6040513481527f543ba50a5eec5e6178218e364b1d0f396157b3c8fa278522c2cb7fd99407d47460203392a2565b335f9081527f7d7ffb7a348e1c6a02869081a26547b49160dd3df72d1d75a570eb9b698292ec602052604090205460ff161561218357565b63e2517d3f60e01b5f52336004527fa49807205ce4d355092ef5a8a18f56e8913cf4a201fbe287825b095693c2177560245260445ffd5b5f8181526020818152604080832033845290915290205460ff16156121dc5750565b63e2517d3f60e01b5f523360045260245260445ffd5b5f818152602081815260408083206001600160a01b038616845290915290205460ff16612274575f818152602081815260408083206001600160a01b0395909516808452949091528120805460ff19166001179055339291907f2f8788117e7eff1d82e926ec794901d17c78024a50270940304540a733656f0d9080a4600190565b50505f90565b5f818152602081815260408083206001600160a01b038616845290915290205460ff1615612274575f818152602081815260408083206001600160a01b0395909516808452949091528120805460ff19169055339291907ff6391f5c32d9c69d2a47ea670b442974b53935d1edc7fd64eb21e047a839171b9080a4600190565b5f52600660205260405f20600581015490612319600682015483611fd4565b9081156123e3576020600760018060a01b0360025416920154602460405180948193632394e7a360e21b835260048301525afa908115611367575f916123b1575b50606482028281046064036113865760508202918083046050149015171561138657101591606481029080820460641490151715611386576032820291820460320361138657826123aa57505090565b1015919050565b90506020813d6020116123db575b816123cc60209383611d7e565b81010312610e9657515f61235a565b3d91506123bf565b5050505f9056fea2646970667358221220746f8929b3ce13d785f89254a588b70e9b18146a6dd5e56465f70e6c8ee099d364736f6c634300081c00336101606040523461045057604051610018604082610454565b60118152602081017027a9a121102b37ba34b733902a37b5b2b760791b815260405190610046604083610454565b601182527027a9a121102b37ba34b733902a37b5b2b760791b602083015260405192610073604085610454565b600484526327a9a12160e11b602085015260405193610093604086610454565b60018552603160f81b60208601908152845190946001600160401b0382116103535760035490600182811c92168015610446575b60208310146103355781601f8493116103d8575b50602090601f8311600114610372575f92610367575b50508160011b915f199060031b1c1916176003555b8051906001600160401b0382116103535760045490600182811c92168015610349575b60208310146103355781601f8493116102c7575b50602090601f8311600114610261575f92610256575b50508160011b915f199060031b1c1916176004555b61017181610580565b6101205261017e84610707565b61014052519020918260e05251902080610100524660a0526040519060208201927f8b73c3c69bb8fe3d512ecc4cf759cc79239f7b179b0ffacaa9a75d522b39400f8452604083015260608201524660808201523060a082015260a081526101e760c082610454565b5190206080523060c0526101fa33610477565b50610204336104ed565b506040516120089081610840823960805181611460015260a0518161151d015260c0518161142a015260e051816114af015261010051816114d5015261012051816109210152610140518161094a0152f35b015190505f80610153565b60045f9081528281209350601f198516905b8181106102af5750908460019594939210610297575b505050811b01600455610168565b01515f1960f88460031b161c191690555f8080610289565b92936020600181928786015181550195019301610273565b60045f529091507f8a35acfbc15ff81a39ae7d344fd709f28e8600b4aa8c65c6b64bfe7fe36bd19b601f840160051c8101916020851061032b575b90601f859493920160051c01905b81811061031d575061013d565b5f8155849350600101610310565b9091508190610302565b634e487b7160e01b5f52602260045260245ffd5b91607f1691610129565b634e487b7160e01b5f52604160045260245ffd5b015190505f806100f1565b60035f9081528281209350601f198516905b8181106103c057509084600195949392106103a8575b505050811b01600355610106565b01515f1960f88460031b161c191690555f808061039a565b92936020600181928786015181550195019301610384565b60035f529091507fc2575a0e9e593c00f959f8c92f12db2869c3395a3b0502d05e2516446f71f85b601f840160051c8101916020851061043c575b90601f859493920160051c01905b81811061042e57506100db565b5f8155849350600101610421565b9091508190610413565b91607f16916100c7565b5f80fd5b601f909101601f19168101906001600160401b0382119082101761035357604052565b6001600160a01b0381165f9081525f5160206128685f395f51905f52602052604090205460ff166104e8576001600160a01b03165f8181525f5160206128685f395f51905f5260205260408120805460ff191660011790553391905f5160206128485f395f51905f528180a4600190565b505f90565b6001600160a01b0381165f9081525f5160206128885f395f51905f52602052604090205460ff166104e8576001600160a01b03165f8181525f5160206128885f395f51905f5260205260408120805460ff191660011790553391907f9f2df0fed2c77648de5860a4cc508cd0818c85b8b8a1ab4ceeef8d981c8956a6905f5160206128485f395f51905f529080a4600190565b908151602081105f146105fa575090601f8151116105ba5760208151910151602082106105ab571790565b5f198260200360031b1b161790565b604460209160405192839163305a27a960e01b83528160048401528051918291826024860152018484015e5f828201840152601f01601f19168101030190fd5b6001600160401b03811161035357600554600181811c911680156106fd575b602082101461033557601f81116106ca575b50602092601f821160011461066957928192935f9261065e575b50508160011b915f199060031b1c19161760055560ff90565b015190505f80610645565b601f1982169360055f52805f20915f5b8681106106b2575083600195961061069a575b505050811b0160055560ff90565b01515f1960f88460031b161c191690555f808061068c565b91926020600181928685015181550194019201610679565b60055f52601f60205f20910160051c810190601f830160051c015b8181106106f2575061062b565b5f81556001016106e5565b90607f1690610619565b908151602081105f14610732575090601f8151116105ba5760208151910151602082106105ab571790565b6001600160401b03811161035357600654600181811c91168015610835575b602082101461033557601f8111610802575b50602092601f82116001146107a157928192935f92610796575b50508160011b915f199060031b1c19161760065560ff90565b015190505f8061077d565b601f1982169360065f52805f20915f5b8681106107ea57508360019596106107d2575b505050811b0160065560ff90565b01515f1960f88460031b161c191690555f80806107c4565b919260206001819286850151815501940192016107b1565b60065f52601f60205f20910160051c810190601f830160051c015b81811061082a5750610763565b5f815560010161081d565b90607f169061075156fe60806040526004361015610011575f80fd5b5f3560e01c806301ffc9a71461022457806306fdde031461021f578063095ea7b31461021a57806318160ddd1461021557806323b872dd14610210578063248a9ca31461020b5780632f2ff15d14610206578063313ce567146102015780633644e515146101fc57806336568abe146101f75780633a46b1a8146101f257806340c10f19146101ed5780634bf5d7e9146101e8578063587cde1e146101e35780635c19a95c146101de5780636fcfff45146101d957806370a08231146101d45780637ecebe00146101cf57806384b0196e146101ca5780638e539e8c146101c557806391d14854146101c057806391ddadf4146101bb57806395d89b41146101b65780639ab24eb0146101b15780639dc29fac146101ac578063a217fddf146101a7578063a9059cbb146101a2578063c3cda5201461019d578063d505accf14610198578063d539139314610193578063d547741f1461018e578063dd62ed3e146101895763f1127ed814610184575f80fd5b611079565b611022565b610fe4565b610faa565b610e86565b610d77565b610d34565b610d1a565b610c2b565b610be4565b610b3f565b610b14565b610ac5565b610a06565b610909565b6108d1565b610899565b610837565b610815565b6107d5565b610745565b61066f565b61058a565b610546565b61052c565b610511565b6104cc565b610499565b61040a565b6103ed565b6103bc565b6102b6565b3461027a57602036600319011261027a5760043563ffffffff60e01b811680910361027a57602090637965db0b60e01b8114908115610269575b506040519015158152f35b6301ffc9a760e01b1490505f61025e565b5f80fd5b805180835260209291819084018484015e5f828201840152601f01601f1916010190565b9060206102b392818152019061027e565b90565b3461027a575f36600319011261027a576040515f6003546102d68161112b565b808452906001811690811561036c575060011461030e575b61030a836102fe81850382611219565b604051918291826102a2565b0390f35b60035f9081527fc2575a0e9e593c00f959f8c92f12db2869c3395a3b0502d05e2516446f71f85b939250905b808210610352575090915081016020016102fe6102ee565b91926001816020925483858801015201910190929161033a565b60ff191660208086019190915291151560051b840190910191506102fe90506102ee565b600435906001600160a01b038216820361027a57565b602435906001600160a01b038216820361027a57565b3461027a57604036600319011261027a576103e26103d8610390565b6024359033611721565b602060405160018152f35b3461027a575f36600319011261027a576020600254604051908152f35b3461027a57606036600319011261027a57610423610390565b61042b6103a6565b6001600160a01b0382165f908152600160209081526040808320338452909152902054604435929083905f198110610465575b5050611264565b8181106104805790610479910333836117bc565b825f61045e565b637dc7a0d960e11b5f523360045260245260445260645ffd5b3461027a57602036600319011261027a5760206104c46004355f52600b602052600160405f20015490565b604051908152f35b3461027a57604036600319011261027a5761050f6004356104eb6103a6565b9061050a610505825f52600b602052600160405f20015490565b61135d565b611397565b005b3461027a575f36600319011261027a57602060405160128152f35b3461027a575f36600319011261027a5760206104c4611427565b3461027a57604036600319011261027a576004356105626103a6565b336001600160a01b0382160361057b5761050f91611543565b63334bd91960e11b5f5260045ffd5b3461027a57604036600319011261027a576105a3610390565b6001600160a01b03165f9081526009602052604090206105c46024356115cb565b8154905f829160058411610617575b6105de9350846119ad565b90816105fc57505060205f5b6040516001600160d01b039091168152f35b610607602092611618565b905f52815f20015460301c6105ea565b91926106228161184f565b810390811161066a576105de93855f5265ffffffffffff8260205f2001541665ffffffffffff8516105f146106585750916105d3565b92915061066490611626565b906105d3565b611604565b3461027a57604036600319011261027a57610688610390565b6024356106936112ee565b6001600160a01b0382168015610732576106b76106b283600254611634565b600255565b6001600160a01b0383165f90815260208181526040808320805486019055518481527fddf252ad1be2c89b69c2b068fc378daa952ba7f163c4a11628f55a4df523b3ef9190a3600254916001600160d01b0380841161071b5761050f83835f611dec565b630e58ae9360e11b5f52600484905260245260445ffd5b63ec442f0560e01b5f525f60045260245ffd5b3461027a575f36600319011261027a5761075e43611802565b65ffffffffffff8061076f43611802565b169116036107c65761030a604051610788604082611219565b601d81527f6d6f64653d626c6f636b6e756d6265722666726f6d3d64656661756c74000000602082015260405191829160208352602083019061027e565b6301bfc1c560e61b5f5260045ffd5b3461027a57602036600319011261027a576001600160a01b036107f6610390565b165f526008602052602060018060a01b0360405f205416604051908152f35b3461027a57602036600319011261027a5761050f610831610390565b33611641565b3461027a57602036600319011261027a576001600160a01b03610858610390565b165f52600960205260405f205463ffffffff81116108825760405163ffffffff9091168152602090f35b6306dfcc6560e41b5f52602060045260245260445ffd5b3461027a57602036600319011261027a5760206104c46108b7610390565b6001600160a01b03165f9081526020819052604090205490565b3461027a57602036600319011261027a576001600160a01b036108f2610390565b165f526007602052602060405f2054604051908152f35b3461027a575f36600319011261027a576109ad6109457f0000000000000000000000000000000000000000000000000000000000000000611b33565b61096e7f0000000000000000000000000000000000000000000000000000000000000000611b93565b602060405161097d8282611219565b5f8152816109bb81830194601f198301368737604051978897600f60f81b895260e0858a015260e089019061027e565b90878203604089015261027e565b914660608701523060808701525f60a087015285830360c087015251918281520192915f5b8281106109ef57505050500390f35b8351855286955093810193928101926001016109e0565b3461027a57602036600319011261027a57610a226004356115cb565b600a54905f829160058411610a71575b610a3e9350600a6119ad565b80610a4f57506040515f8152602090f35b610a6c610a5d602092611618565b600a5f52825f20015460301c90565b6105ea565b9192610a7c8161184f565b810390811161066a57610a3e93600a5f5265ffffffffffff8260205f2001541665ffffffffffff8516105f14610ab3575091610a32565b929150610abf90611626565b90610a32565b3461027a57604036600319011261027a57602060ff610b08600435610ae86103a6565b905f52600b845260405f209060018060a01b03165f5260205260405f2090565b54166040519015158152f35b3461027a575f36600319011261027a576020610b2f43611802565b65ffffffffffff60405191168152f35b3461027a575f36600319011261027a576040515f600454610b5f8161112b565b808452906001811690811561036c5750600114610b865761030a836102fe81850382611219565b60045f9081527f8a35acfbc15ff81a39ae7d344fd709f28e8600b4aa8c65c6b64bfe7fe36bd19b939250905b808210610bca575090915081016020016102fe6102ee565b919260018160209254838588010152019101909291610bb2565b3461027a57602036600319011261027a576001600160a01b03610c05610390565b165f526009602052602060018060d01b03610c2260405f206116c2565b16604051908152f35b3461027a57604036600319011261027a57610c44610390565b602435610c4f6112ee565b6001600160a01b0382168015610d07576001600160a01b0383165f90815260208190526040902054828110610ce057925f80928461050f9603610ca18460018060a01b03165f525f60205260405f2090565b55610caf8560025403600255565b6040518581527fddf252ad1be2c89b69c2b068fc378daa952ba7f163c4a11628f55a4df523b3ef90602090a3611dec565b63391434e360e21b5f526001600160a01b039093166004525060249190915260445260645ffd5b634b637e8f60e11b5f525f60045260245ffd5b3461027a575f36600319011261027a5760206040515f8152f35b3461027a57604036600319011261027a57610d4d610390565b6024359033611264565b6064359060ff8216820361027a57565b6084359060ff8216820361027a57565b3461027a5760c036600319011261027a57610d90610390565b60243590604435610d9f610d57565b6084359060a43592804211610e745791610e249391610e16610e1b9460405160208101917fe48329057bfd03d55e49b547132e39cffd9c1820ad7b9d4c5307691425d15adf835260018060a01b038a1660408301528a6060830152608082015260808152610e0e60a082611219565b5190206116ec565b611bca565b90929192611c75565b6001600160a01b0381165f908152600760205260409020805460018101909155809303610e555761050f9250611641565b90506301d4b62360e61b5f5260018060a01b031660045260245260445ffd5b632341d78760e11b5f5260045260245ffd5b3461027a5760e036600319011261027a57610e9f610390565b610ea76103a6565b6044359060643592610eb7610d67565b60a43560c43590864211610f97576001600160a01b0384165f908152600760205260409020805460018101909155610f5c9390610f57909860405160208101917f6e71edae12b1b97f4d1f60370fef10105fa2faae0126114a169c64845d6126c9835260018060a01b0389169b8c604084015260018060a01b038b1660608401528b608084015260a083015260c082015260c08152610e0e60e082611219565b611712565b936001600160a01b03851603610f765761050f9350611721565b6325c0072360e11b5f526001600160a01b038085166004521660245260445ffd5b8663313c898160e11b5f5260045260245ffd5b3461027a575f36600319011261027a5760206040517f9f2df0fed2c77648de5860a4cc508cd0818c85b8b8a1ab4ceeef8d981c8956a68152f35b3461027a57604036600319011261027a5761050f6004356110036103a6565b9061101d610505825f52600b602052600160405f20015490565b611543565b3461027a57604036600319011261027a576020611070611040610390565b6110486103a6565b6001600160a01b039182165f9081526001855260408082209290931681526020919091522090565b54604051908152f35b3461027a57604036600319011261027a57611092610390565b6024359063ffffffff8216820361027a5761030a916110e1916110b361124c565b506110bc61124c565b506001600160a01b03165f9081526009602052604090206110db61124c565b50611cf1565b50604051906110ef826111f8565b5465ffffffffffff811680835260309190911c60209283019081526040805192835290516001600160d01b031692820192909252918291820190565b90600182811c92168015611159575b602083101461114557565b634e487b7160e01b5f52602260045260245ffd5b91607f169161113a565b5f92918154916111728361112b565b80835292600181169081156111c7575060011461118e57505050565b5f9081526020812093945091925b8383106111ad575060209250010190565b60018160209294939454838587010152019101919061119c565b915050602093945060ff929192191683830152151560051b010190565b634e487b7160e01b5f52604160045260245ffd5b6040810190811067ffffffffffffffff82111761121457604052565b6111e4565b90601f8019910116810190811067ffffffffffffffff82111761121457604052565b6040519061124a604083611219565b565b60405190611259826111f8565b5f6020838281520152565b9091506001600160a01b031615610d07576001600160a01b0316156107325760405162461bcd60e51b815260206004820152603a60248201527f546f6b656e79206e65206d6f7a686e6120706572656b6164757661747921205660448201527f6f6e79207072797669617a616e6920646f206b766172746972790000000000006064820152608490fd5b335f9081527ff70e363b3d7895af770c4a138460777d52eebd3cb9962ccc6b58721f6127bbc8602052604090205460ff161561132657565b63e2517d3f60e01b5f52336004527f9f2df0fed2c77648de5860a4cc508cd0818c85b8b8a1ab4ceeef8d981c8956a660245260445ffd5b5f818152600b6020908152604080832033845290915290205460ff16156113815750565b63e2517d3f60e01b5f523360045260245260445ffd5b5f818152600b602090815260408083206001600160a01b038616845290915290205460ff16611421575f818152600b602090815260408083206001600160a01b03861684529091529020805460ff1916600117905533916001600160a01b0316907f2f8788117e7eff1d82e926ec794901d17c78024a50270940304540a733656f0d5f80a4600190565b50505f90565b307f00000000000000000000000000000000000000000000000000000000000000006001600160a01b0316148061151a575b15611482577f000000000000000000000000000000000000000000000000000000000000000090565b60405160208101907f8b73c3c69bb8fe3d512ecc4cf759cc79239f7b179b0ffacaa9a75d522b39400f82527f000000000000000000000000000000000000000000000000000000000000000060408201527f000000000000000000000000000000000000000000000000000000000000000060608201524660808201523060a082015260a0815261151460c082611219565b51902090565b507f00000000000000000000000000000000000000000000000000000000000000004614611459565b5f818152600b602090815260408083206001600160a01b038616845290915290205460ff1615611421575f818152600b602090815260408083206001600160a01b03861684529091529020805460ff1916905533916001600160a01b0316907ff6391f5c32d9c69d2a47ea670b442974b53935d1edc7fd64eb21e047a839171b5f80a4600190565b65ffffffffffff6115db43611802565b16808210156115ee57506102b390611802565b90637669fc0f60e11b5f5260045260245260445ffd5b634e487b7160e01b5f52601160045260245ffd5b5f1981019190821161066a57565b906001820180921161066a57565b9190820180921161066a57565b6001600160a01b038181165f81815260086020526040812080548685166001600160a01b03198216811790925561124a969416946116bc9390928691907f3134e8a2e6d97e929a7e54011ea5485d7d196dd5f0ba4d4ef95803e8e3fc257f9080a46001600160a01b03165f9081526020819052604090205490565b91611a11565b805490816116d05750505f90565b815f1981011161066a575f525f199060205f2001015460301c90565b6042906116f7611427565b906040519161190160f01b8352600283015260228201522090565b916102b39391610e1b93611bca565b6001600160a01b03169081156117a9576001600160a01b03811692831561179657806117897f8c5be1e5ebec7d5bd14f71427d1e84f3dd0314c0f7b2291e5b200ac8c7c3b92593855f52600160205260405f209060018060a01b03165f5260205260405f2090565b55604051908152602090a3565b634a1406b160e11b5f525f60045260245ffd5b63e602df0560e01b5f525f60045260245ffd5b6001600160a01b03169081156117a9576001600160a01b03811615611796576117ff915f52600160205260405f209060018060a01b03165f5260205260405f2090565b55565b65ffffffffffff811161181a5765ffffffffffff1690565b6306dfcc6560e41b5f52603060045260245260445ffd5b811561183b570490565b634e487b7160e01b5f52601260045260245ffd5b60018111156102b357806001600160801b821015611970575b61191661190c6119026118f86118ee6118e46118d361191d9760048a600160401b6119229c1015611963575b640100000000811015611956575b62010000811015611949575b61010081101561193c575b601081101561192f575b1015611927575b60030260011c90565b6118dd818b611831565b0160011c90565b6118dd818a611831565b6118dd8189611831565b6118dd8188611831565b6118dd8187611831565b6118dd8186611831565b8093611831565b821190565b900390565b60011b6118ca565b60041c9160021b916118c3565b60081c9160041b916118b9565b60101c9160081b916118ae565b60201c9160101b916118a2565b60401c9160201b91611894565b505061192261191d61191661190c6119026118f86118ee6118e46118d36119978a60801c90565b9850600160401b97506118689650505050505050565b91905b8382106119bd5750505090565b9091928083169080841860011c820180921161066a57845f5265ffffffffffff8260205f2001541665ffffffffffff8416105f146119ff5750925b91906119b0565b939250611a0b90611626565b916119f8565b6001600160a01b03808316939291908116908185141580611b2a575b611a39575b5050505050565b81611abd575b505082611a4e575b8080611a32565b6001600160a01b03165f9081526009602052604090207fdec2bacdd2f05b59de34da9b523dff8be42e5e38e818c82fdb0bae774387a72491611a9a91611a949091611d1a565b90611d83565b604080516001600160d01b039384168152919092166020820152a25f8080611a47565b6001600160a01b03165f9081526009602052604090207fdec2bacdd2f05b59de34da9b523dff8be42e5e38e818c82fdb0bae774387a72490611b0890611b0286611d1a565b90611d4b565b604080516001600160d01b039384168152919092166020820152a25f80611a3f565b50831515611a2d565b60ff8114611b795760ff811690601f8211611b6a5760405191611b57604084611219565b6020808452838101919036833783525290565b632cd44ac360e21b5f5260045ffd5b506040516102b381611b8c816005611163565b0382611219565b60ff8114611bb75760ff811690601f8211611b6a5760405191611b57604084611219565b506040516102b381611b8c816006611163565b91907f7fffffffffffffffffffffffffffffff5d576e7357a4501ddfe92f46681b20a08411611c4c579160209360809260ff5f9560405194855216868401526040830152606082015282805260015afa15611c41575f516001600160a01b03811615611c3757905f905f90565b505f906001905f90565b6040513d5f823e3d90fd5b5050505f9160039190565b60041115611c6157565b634e487b7160e01b5f52602160045260245ffd5b611c7e81611c57565b80611c87575050565b611c9081611c57565b60018103611ca75763f645eedf60e01b5f5260045ffd5b611cb081611c57565b60028103611ccb575063fce698f760e01b5f5260045260245ffd5b80611cd7600392611c57565b14611cdf5750565b6335e2f38360e21b5f5260045260245ffd5b8054821015611d06575f5260205f2001905f90565b634e487b7160e01b5f52603260045260245ffd5b6001600160d01b038111611d34576001600160d01b031690565b6306dfcc6560e41b5f5260d060045260245260445ffd5b90611d5543611802565b90611d5f836116c2565b6001600160d01b03918216908216039190821161066a57611d7f92611efc565b9091565b90611d8d43611802565b90611d97836116c2565b6001600160d01b03918216908216019190821161066a57611d7f92611efc565b611dc043611802565b90611dcb600a6116c2565b6001600160d01b039182169082160390811161066a57611d7f91600a611efc565b9091906001600160a01b03168015611e53575b61124a926001600160a01b0316908115611e3b575b5f90815260086020526040808220549282529020546001600160a01b039081169116611a11565b611e4c611e4784611d1a565b611db7565b5050611e14565b611e5c82611d1a565b92611e6643611802565b93611e71600a6116c2565b6001600160d01b03918216908216019490851161066a5761124a94611e9791600a611efc565b9050509250611dff565b8054600160401b81101561121457611ebe91600182018155611cf1565b611ee957815160209092015160301b65ffffffffffff191665ffffffffffff92909216919091179055565b634e487b7160e01b5f525f60045260245ffd5b80549293928015611fa857611f13611f1e91611618565b825f5260205f200190565b8054603081901c9365ffffffffffff91821692918116808411611f9957879303611f655750611f6192509065ffffffffffff82549181199060301b169116179055565b9190565b915050611f6191611f85611f7761123b565b65ffffffffffff9093168352565b6001600160d01b0386166020830152611ea1565b632520601d60e01b5f5260045ffd5b5090611fcd91611fb9611f7761123b565b6001600160d01b0385166020830152611ea1565b5f919056fea2646970667358221220b274a9249de39d5c812aa8e55cf80456c710b40ece7eef657c5d5a36d03518ae64736f6c634300081c00332f8788117e7eff1d82e926ec794901d17c78024a50270940304540a733656f0ddf7de25b7f1fd6d0b5205f0e18f1f35bd7b8d84cce336588d184533ce43a6f76f70e363b3d7895af770c4a138460777d52eebd3cb9962ccc6b58721f6127bbc82f8788117e7eff1d82e926ec794901d17c78024a50270940304540a733656f0d7d7ffb7a348e1c6a02869081a26547b49160dd3df72d1d75a570eb9b698292ecad3228b676f7d3cd4284a5443f17f1962b36e491b30a40b2405849e597ba5fb5",
  "linkReferences": {},
  "deployedLinkReferences": {},
  "immutableReferences": {},
  "inputSourceName": "project/contracts/OSBB_DAO.sol",
  "buildInfoId": "solc-0_8_28-a440ec755b7ac0dfabfbc28a030845f560c3786d"
}